:020000040800F2
:1000000000500020852D0008812C0008872C000856
:100010008D2C0008932C0008992C0008000000008B
:100020000000000000000000000000009F2C0008FD
:10003000AB2C000800000000B72C0008C32C0008FF
:10004000CD2D0008CD2D0008CD2D0008CD2D0008A8
:10005000CD2D0008CD2D0008CD2D0008CD2D000898
:10006000CD2D0008CD2D0008CD2D0008CD2D000888
:10007000CD2D0008CD2D0008CD2D0008CD2D000878
:10008000CD2D0008CD2D0008CD2D0008CD2D000868
:10009000CD2D0008CD2D0008CD2D0008CD2D000858
:1000A000CD2D0008D12C0008CD2D0008CD2D000845
:1000B000CD2D0008E52C0008F92C0008CD2D0008F6
:1000C000CD2D0008CD2D0008CD2D0008CD2D000828
:1000D000CD2D0008CD2D0008CD2D0008CD2D000818
:1000E000CD2D0008CD2D0008CD2D0008000000000A
:1000F0000000000000000000000000000000000000
:0C01000000000000000000005FF808F1A3
:1001100010B5054C237833B9044B13B10448AFF341
:1001200000800123237010BD980000200000000013
:10013000A46D000808B5034B1BB103490348AFF396
:10014000008008BD000000009C000020A46D000895
:1001500081F0004102E000BF83F0004330B54FEA78
:1001600041044FEA430594EA050F08BF90EA020FE5
:100170001FBF54EA000C55EA020C7FEA645C7FEA78
:10018000655C00F0E2804FEA5454D4EB5555B8BF9B
:100190006D420CDD2C4480EA020281EA030382EA0C
:1001A000000083EA010180EA020281EA0303362D9E
:1001B00088BF30BD11F0004F4FEA01314FF4801C71
:1001C0004CEA113102D0404261EB410113F0004F83
:1001D0004FEA03334CEA133302D0524263EB43033A
:1001E00094EA050F00F0A780A4F10104D5F1200ED8
:1001F0000DDB02FA0EFC22FA05F2801841F1000133
:1002000003FA0EF2801843FA05F359410EE0A5F106
:1002100020050EF1200E012A03FA0EFC28BF4CF037
:10022000020C43FA05F3C01851EBE37101F00045ED
:1002300007D54FF0000EDCF1000C7EEB00006EEBFA
:100240000101B1F5801F1BD3B1F5001F0CD3490884
:100250005FEA30004FEA3C0C04F101044FEA4452DB
:1002600012F5800F80F09A80BCF1004F08BF5FEA62
:10027000500C50F1000041EB045141EA050130BD42
:100280005FEA4C0C404141EB0101013C28BFB1F554
:10029000801FE9D291F0000F04BF01460020B1FA9F
:1002A00081F308BF2033A3F10B03B3F120020CDA72
:1002B0000C3208DD02F1140CC2F10C0201FA0CF050
:1002C00021FA02F10CE002F11402D8BFC2F1200CB5
:1002D00001FA02F120FA0CFCDCBF41EA0C0190406B
:1002E000E41AA2BF01EB0451294330BD6FEA0404B4
:1002F0001F3C1CDA0C340EDC04F11404C4F120029F
:1003000020FA04F001FA02F340EA030021FA04F3B0
:1003100045EA030130BDC4F10C04C4F1200220FA07
:1003200002F001FA04F340EA0300294630BD21FA45
:1003300004F0294630BD94F0000F83F4801306BF0B
:1003400081F480110134013D4EE77FEA645C18BFFF
:100350007FEA655C29D094EA050F08BF90EA020F96
:1003600005D054EA000C04BF1946104630BD91EA8E
:10037000030F1EBF0021002030BD5FEA545C05D191
:100380004000494128BF41F0004130BD14F58004D0
:100390003CBF01F5801130BD01F0004545F0FE4144
:1003A00041F470014FF0000030BD7FEA645C1ABF79
:1003B000194610467FEA655C1CBF0B46024650EAB0
:1003C000013406BF52EA033591EA030F41F40021DC
:1003D00030BD00BF90F0000F04BF0021704730B562
:1003E0004FF4806404F132044FF000054FF0000137
:1003F00050E700BF90F0000F04BF0021704730B5F8
:100400004FF4806404F1320410F0004548BF4042CC
:100410004FF000013EE700BF42004FEAE2014FEA21
:1004200031014FEA02701FBF12F07F4393F07F4FFC
:1004300081F06051704732F07F4208BF704793F0FF
:100440007F4F04BF41F40021704730B54FF4607412
:1004500001F0004521F000411CE700BF50EA010215
:1004600008BF704730B54FF000050AE050EA0102BE
:1004700008BF704730B511F0004502D5404261EB2E
:1004800041014FF4806404F132045FEA915C3FF46F
:10049000D8AE4FF003025FEADC0C18BF03325FEA0C
:1004A000DC0C18BF033202EBDC02C2F1200300FABD
:1004B00003FC20FA02F001FA03FE40EA0E0021FAE2
:1004C00002F11444BDE600BF70B54FF0FF0C4CF4D0
:1004D000E06C1CEA11541DBF1CEA135594EA0C0F82
:1004E00095EA0C0F00F0DEF82C4481EA030621EABD
:1004F0004C5123EA4C5350EA013518BF52EA0335F8
:1005000041F4801143F4801338D0A0FB02CE4FF0A9
:100510000005E1FB02E506F00042E0FB03E54FF0D9
:100520000006E1FB03569CF0000F18BF4EF0010ED1
:10053000A4F1FF04B6F5007F64F5407404D25FEACD
:100540004E0E6D4146EB060642EAC62141EA555180
:100550004FEAC52040EA5E504FEACE2EB4F1FD0CC2
:1005600088BFBCF5E06F1ED8BEF1004F08BF5FEA40
:10057000500E50F1000041EB045170BD06F00046F2
:1005800046EA010140EA020081EA0301B4EB5C049F
:10059000C2BFD4EB0C0541EA045170BD41F4801197
:1005A0004FF0000E013C00F3AB8014F1360FDEBFBC
:1005B000002001F0004170BDC4F10004203C35DA98
:1005C0000C341BDC04F11404C4F1200500FA05F31B
:1005D00020FA04F001FA05F240EA020001F00042BC
:1005E00021F0004110EBD37021FA04F642EB060132
:1005F0005EEA430E08BF20EAD37070BDC4F10C045C
:10060000C4F1200500FA04F320FA05F001FA04F21F
:1006100040EA020001F0004110EBD37041F100010B
:100620005EEA430E08BF20EAD37070BDC4F1200516
:1006300000FA05F24EEA020E20FA04F301FA05F27E
:1006400043EA020321FA04F001F0004121FA04F226
:1006500020EA020000EBD3705EEA430E08BF20EAF6
:10066000D37070BD94F0000F0FD101F00046400030
:1006700041EB010111F4801F08BF013CF7D041EAB2
:10068000060195F0000F18BF704703F000465200B6
:1006900043EB030313F4801F08BF013DF7D043EA87
:1006A0000603704794EA0C0F0CEA135518BF95EA3D
:1006B0000C0F0CD050EA410618BF52EA4306D1D1C4
:1006C00081EA030101F000414FF0000070BD50EAE3
:1006D000410606BF1046194652EA430619D094EA6D
:1006E0000C0F02D150EA013613D195EA0C0F05D157
:1006F00052EA03361CBF104619460AD181EA0301AB
:1007000001F0004141F0FE4141F470014FF0000062
:1007100070BD41F0FE4141F4780170BD70B54FF0FD
:10072000FF0C4CF4E06C1CEA11541DBF1CEA13557D
:1007300094EA0C0F95EA0C0F00F0A7F8A4EB05045F
:1007400081EA030E52EA03354FEA013100F0888056
:100750004FEA03334FF0805545EA131343EA12631F
:100760004FEA022245EA111545EA10654FEA0026D4
:100770000EF000419D4208BF964244F1FD0404F58D
:10078000407402D25B084FEA3202B61A65EB0305E9
:100790005B084FEA32024FF480104FF4002CB6EBA6
:1007A000020E75EB030E22BFB61A754640EA0C0026
:1007B0005B084FEA3202B6EB020E75EB030E22BF66
:1007C000B61A754640EA5C005B084FEA3202B6EBA7
:1007D000020E75EB030E22BFB61A754640EA9C0066
:1007E0005B084FEA3202B6EB020E75EB030E22BF36
:1007F000B61A754640EADC0055EA060E18D04FEAF4
:10080000051545EA16754FEA06164FEAC30343EA93
:1008100052734FEAC2025FEA1C1CC0D111F4801F60
:100820000BD141EA00014FF000004FF0004CB6E759
:1008300011F4801F04BF01430020B4F1FD0C88BFF8
:10084000BCF5E06F3FF6AFAEB5EB030C04BFB6EB03
:10085000020C5FEA500C50F1000041EB045170BDF6
:100860000EF0004E4EEA113114EB5C04C2BFD4EB23
:100870000C0541EA045170BD41F480114FF0000EA7
:10088000013C90E645EA060E8DE60CEA135594EA23
:100890000C0F08BF95EA0C0F3FF43BAF94EA0C0F26
:1008A0000AD150EA01347FF434AF95EA0C0F7FF49B
:1008B00025AF104619462CE795EA0C0F06D152EAEF
:1008C00003353FF4FDAE1046194622E750EA4106D3
:1008D00018BF52EA43067FF4C5AE50EA41047FF4E4
:1008E0000DAF52EA43057FF4EBAE12E74FF0FF3C49
:1008F00006E000BF4FF0010C02E000BF4FF0010C1A
:100900004DF804CD4FEA410C7FEA6C5C4FEA430C92
:1009100018BF7FEA6C5C1BD001B050EA410C0CBFE1
:1009200052EA430C91EA030F02BF90EA020F002043
:10093000704710F1000F91EA030F58BF994208BFAA
:1009400090422CBFD8176FEAE37040F00100704767
:100950004FEA410C7FEA6C5C02D150EA013C07D1BE
:100960004FEA430C7FEA6C5CD6D152EA033CD3D009
:100970005DF8040B704700BF8446104662468C4603
:100980001946634600E000BF01B5FFF7B7FF002836
:1009900048BF10F1000F01BD4DF808EDFFF7F4FF5F
:1009A0000CBF012000205DF808FB00BF4DF808EDEA
:1009B000FFF7EAFF34BF012000205DF808FB00BF0D
:1009C0004DF808EDFFF7E0FF94BF012000205DF82F
:1009D00008FB00BF4DF808EDFFF7CEFF94BF0120E4
:1009E00000205DF808FB00BF4DF808EDFFF7C4FFDD
:1009F00034BF012000205DF808FB00BF4FEA410230
:100A000012F5001215D211D56FF47873B3EB625260
:100A100012D94FEAC12343F0004343EA505311F087
:100A2000004F23FA02F018BF404270474FF0000019
:100A3000704750EA013005D111F0004008BF6FF057
:100A4000004070474FF00000704700BF4FEA41027E
:100A5000B2F1E04324BFB3F5001CDCF1FE5C0DD91C
:100A600001F0004C4FEAC0024CEA5070B2F1004F66
:100A700040EB830008BF20F00100704711F0804F69
:100A800021D113F13872BCBF01F00040704741F42E
:100A900080114FEA5252C2F11802C2F1200C10FA32
:100AA0000CF320FA02F018BF40F001004FEAC12316
:100AB0004FEAD32303FA0CFC40EA0C0023FA02F3BA
:100AC0004FEA4303CCE77FEA625307D150EA013390
:100AD0001EBF4FF0FE4040F44000704701F0004060
:100AE00040F0FE4040F40000704700BF80F000403E
:100AF00002E000BF81F0004142001FBF5FEA4103F6
:100B000092EA030F7FEA226C7FEA236C6AD04FEAF5
:100B10001262D2EB1363C1BFD2184140484041403A
:100B2000B8BF5B42192B88BF704710F0004F40F4EC
:100B3000000020F07F4018BF404211F0004F41F408
:100B4000000121F07F4118BF494292EA030F3FD0D4
:100B5000A2F1010241FA03FC10EB0C00C3F12003E7
:100B600001FA03F100F0004302D5494260EB400076
:100B7000B0F5000F13D3B0F1807F06D340084FEAE1
:100B8000310102F10102FE2A51D2B1F1004F40EBD6
:100B9000C25008BF20F0010040EA0300704749003E
:100BA00040EB0000013A28BFB0F5000FEDD2B0FADB
:100BB00080FCACF1080CB2EB0C0200FA0CF0AABFFE
:100BC00000EBC25052421843BCBFD040184370479C
:100BD00092F0000F81F4000106BF80F400000132A2
:100BE000013BB5E74FEA41037FEA226C18BF7FEA79
:100BF000236C21D092EA030F04D092F0000F08BFBB
:100C00000846704790EA010F1CBF0020704712F0A1
:100C10007F4F04D1400028BF40F00040704712F1E0
:100C200000723CBF00F50000704700F0004343F045
:100C3000FE4040F4000070477FEA226216BF08467B
:100C40007FEA23630146420206BF5FEA412390EA3E
:100C5000010F40F4800070474FF0000304E000BF34
:100C600010F0004348BF40425FEA000C08BF7047E5
:100C700043F0964301464FF000001CE050EA0102A9
:100C800008BF70474FF000030AE000BF50EA0102BE
:100C900008BF704711F0004302D5404261EB4101AB
:100CA0005FEA010C02BF84460146002043F0B643D0
:100CB00008BFA3F18053A3F50003BCFA8CF2083AF5
:100CC000A3EBC25310DB01FA02FC634400FA02FCFE
:100CD000C2F12002BCF1004F20FA02F243EB020005
:100CE00008BF20F00100704702F1200201FA02FC67
:100CF000C2F1200250EA4C0021FA02F243EB02005A
:100D000008BF20EADC7070474FF0FF0C1CEAD0529D
:100D10001EBF1CEAD15392EA0C0F93EA0C0F6FD05E
:100D20001A4480EA010C400218BF5FEA41211ED03C
:100D30004FF0006343EA501043EA5111A0FB013128
:100D40000CF00040B1F5000F3EBF490041EAD371FD
:100D50005B0040EA010062F17F02FD2A1DD8B3F179
:100D6000004F40EBC25008BF20F00100704790F0E8
:100D7000000F0CF0004C08BF49024CEA502040EA3A
:100D800051207F3AC2BFD2F1FF0340EAC250704700
:100D900040F400004FF00003013A5DDC12F1190F3E
:100DA000DCBF00F000407047C2F10002410021FAB0
:100DB00002F1C2F1200200FA02FC5FEA310040F1C8
:100DC000000053EA4C0308BF20EADC70704792F041
:100DD000000F00F0004C02BF400010F4000F013A79
:100DE000F9D040EA0C0093F0000F01F0004C02BF74
:100DF000490011F4000F013BF9D041EA0C018FE7E3
:100E00000CEAD15392EA0C0F18BF93EA0C0F0AD0E8
:100E100030F0004C18BF31F0004CD8D180EA01000E
:100E200000F00040704790F0000F17BF90F0004FA7
:100E3000084691F0000F91F0004F14D092EA0C0F89
:100E400001D142020FD193EA0C0F03D14B0218BF1C
:100E5000084608D180EA010000F0004040F0FE4062
:100E600040F40000704740F0FE4040F440007047FE
:100E70004FF0FF0C1CEAD0521EBF1CEAD15392EA7D
:100E80000C0F93EA0C0F69D0A2EB030280EA010C6D
:100E900049024FEA402037D04FF0805343EA111106
:100EA00043EA10130CF000408B4238BF5B0042F164
:100EB0007D024FF4000C8B4224BF5B1A40EA0C0009
:100EC000B3EB510F24BFA3EB510340EA5C00B3EB3B
:100ED000910F24BFA3EB910340EA9C00B3EBD10F29
:100EE00024BFA3EBD10340EADC001B0118BF5FEA7B
:100EF0001C1CE0D1FD2A3FF650AF8B4240EBC250A4
:100F000008BF20F0010070470CF0004C4CEA502064
:100F10007F32C2BFD2F1FF0340EAC250704740F4B3
:100F200000004FF00003013A37E792F0000F00F0A5
:100F3000004C02BF400010F4000F013AF9D040EA23
:100F40000C0093F0000F01F0004C02BF490011F4B7
:100F5000000F013BF9D041EA0C0195E70CEAD153AF
:100F600092EA0C0F08D142027FF47DAF93EA0C0F96
:100F70007FF470AF084676E793EA0C0F04D14B027A
:100F80003FF44CAF08466EE730F0004C18BF31F02C
:100F9000004CCAD130F000427FF45CAF31F0004326
:100FA0007FF43CAF5FE700BF80B500AF01F010FFFA
:100FB00000F020F800F01EFA00F090F800F0E6F8DB
:100FC00000F070F900F0C2F900F05AF84FF4005147
:100FD000064802F02DFA4FF48051054802F028FA35
:100FE000C82001F057FF01F09BFCEFE70010014023
:100FF000000C014080B590B000AF07F11803282223
:101000000021184604F020FA3B1D00221A605A60A5
:101010009A60DA601A610123BB614FF48033FB618F
:1010200000233B620123BB6202237B634FF48033C6
:10103000BB634FF4E013FB6307F11803184602F09B
:10104000BDFE0346002B01D000F042FA0F237B6067
:101050000223BB600023FB604FF480633B610023ED
:101060007B613B1D0221184603F02AF90346002B41
:1010700001D000F02DFA00BF4037BD4680BD000012
:1010800080B500AF124B134A1A60114B124A5A60D6
:101090000F4B00229A600E4B0022DA600C4B4FF48B
:1010A00080421A610A4B00225A61094B00229A6160
:1010B000074B0022DA61064B00221A62044802F054
:1010C000D1F90346002B01D000F002FA00BF80BD29
:1010D000B400002000580040801A060080B58CB093
:1010E00000AF07F10C0324220021184604F0ACF9EC
:1010F0003B1D00221A605A60224B234A1A60214B82
:1011000000225A601F4B00229A601E4B4FF6FF725E
:10111000DA601C4B00221A611A4B00225A61194BEB
:1011200080229A610323FB6000233B6101237B61E2
:101130000023BB610A23FB6100233B6201237B6226
:101140000023BB620023FB6207F10C0319460D4824
:1011500003F0D7FA0346002B01D000F0B9F90023C1
:101160007B600023BB603B1D1946064804F0AAF8CB
:101170000346002B01D000F0ABF900BF3037BD466D
:1011800080BD00BF08010020002C014080B58EB05A
:1011900000AF07F1280300221A605A609A60DA60F3
:1011A00007F1200300221A605A603B1D00221A60DA
:1011B0005A609A60DA601A615A619A61384B4FF04E
:1011C00080421A60364B00225A60354B00229A60EA
:1011D000334B4FF6FF72DA60314B00221A61304B0D
:1011E00000229A612E4803F0E5F90346002B01D056
:1011F00000F06EF94FF48053BB6207F128031946E3
:10120000274803F0EBFC0346002B01D000F060F907
:10121000234803F01EFA0346002B01D000F058F9D2
:1012200000233B6200237B6207F1200319461C4820
:1012300004F048F80346002B01D000F049F9602380
:101240007B600023BB600023FB6000237B613B1DB0
:1012500000221946124803F0FFFB0346002B01D081
:1012600000F036F93B1D042219460D4803F0F4FB4B
:101270000346002B01D000F02BF93B1D0822194634
:10128000074803F0E9FB0346002B01D000F020F9EA
:10129000034801F0C5FC00BF3837BD4680BD00BF24
:1012A0005001002080B58CB000AF07F10C03242260
:1012B0000021184604F0C8F83B1D00221A605A604D
:1012C000204B214A1A601F4B00225A601D4B0022FE
:1012D0009A601C4B4FF6FF72DA601A4B00221A61BB
:1012E000184B80229A610323FB6000233B6101239A
:1012F0007B610023BB610A23FB6100233B62012366
:101300007B620023BB620023FB6207F10C031946DA
:101310000C4803F0F6F90346002B01D000F0D8F892
:1013200000237B600023BB603B1D1946054803F08A
:10133000C9FF0346002B01D000F0CAF800BF3037C8
:10134000BD4680BD980100200004004080B58CB0EF
:1013500000AF07F10C0324220021184604F074F8B2
:101360003B1D00221A605A60204B214A1A601F4B15
:1013700000225A601D4B00229A601C4B4FF6FF72F0
:10138000DA601A4B00221A61184B80229A610323FB
:10139000FB6000233B6101237B610023BB610A23C7
:1013A000FB6100233B6201237B620023BB620023BD
:1013B000FB6207F10C0319460C4803F0A2F903463F
:1013C000002B01D000F084F800237B600023BB6079
:1013D0003B1D1946054803F075FF0346002B01D05D
:1013E00000F076F800BF3037BD4680BDE001002038
:1013F0000008004080B588B000AF07F1100300225C
:101400001A605A609A60DA602E4B9B692D4A43F04D
:10141000100393612B4B9B6903F01003FB60FB6887
:10142000284B9B69274A43F020039361254B9B6916
:1014300003F02003BB60BB68224B9B69214A43F049
:10144000040393611F4B9B6903F004037B607B687B
:101450001C4B9B691B4A43F008039361194B9B6922
:1014600003F008033B603B6800224FF4005116482C
:1014700001F0C6FF00224FF48051144801F0C0FF74
:101480004FF400533B6101237B610023BB610223C6
:10149000FB6107F1100319460B4801F02DFE4FF4D4
:1014A00080533B6101237B610023BB610223FB610D
:1014B00007F110031946054801F01EFE00BF203752
:1014C000BD4680BD0010024000100140000C0140EC
:1014D00080B400AF72B600BFFEE780B400AF00BFBB
:1014E000BD4680BC7047000080B586B004AF03469F
:1014F000FB714FF0FF33029301230193FB1D009317
:10150000012300227821034802F0F0F800BF0837D9
:10151000BD4680BDB400002080B586B004AF7860C1
:1015200039603B689BB24FF0FF32029201937B68B7
:101530000093012340227821034802F0D7F800BF2E
:101540000837BD4680BD00BFB400002080B500AFA5
:10155000FFF7C3FF642001F09DFC002000F02AFF8C
:101560002020FFF7C1FF0020FFF7BEFFB020FFF7EC
:10157000BBFFC820FFF7B8FF0020FFF7B5FF102022
:10158000FFF7B2FF4020FFF7AFFFFF2000F0FEFEA5
:10159000A120FFF7A9FFA620FFF7A6FFA820FFF7CD
:1015A000A3FF3F20FFF7A0FFA420FFF79DFFD3205C
:1015B000FFF79AFF0020FFF797FFD520FFF794FF72
:1015C000F020FFF791FFD920FFF78EFF2220FFF7D1
:1015D0008BFFDA20FFF788FF1220FFF785FFDB2063
:1015E000FFF782FF2020FFF77FFF8D20FFF77CFFB2
:1015F0001420FFF779FF012000F0DCFE002000F04E
:101600000FF800F025F8054B00221A80034B00224A
:101610005A80024B01221A7100BF80BD28060020AB
:1016200080B582B000AF0346FB71FB79002B01D17E
:10163000002300E0FF234FF480621946034803F0C3
:1016400003FF00BF0837BD4680BD00BF2802002051
:1016500080B582B000AF0023FB7116E0FB79503BF0
:10166000DBB21846FFF740FF0020FFF73DFF1020D8
:10167000FFF73AFFFB79DB01084A13448021184643
:10168000FFF74AFFFB790133FB71FB79072BE5D9A3
:1016900000BF00BF0837BD4680BD00BF2802002044
:1016A00080B483B000AF0346FB710B46BB71134699
:1016B0007B7197F90730002B3DDBBB793F2B3AD884
:1016C0007B79012B1AD1FA79BB79DB08D8B20346B2
:1016D000DB0113441A4AD35C5AB2BB7903F0070307
:1016E000012101FA03F35BB2134359B2FA790346BD
:1016F000DB011344C9B2124AD1541DE0FA79BB7917
:10170000DB08D8B20346DB0113440D4AD35C5AB25E
:10171000BB7903F00703012101FA03F35BB2DB435A
:101720005BB2134059B2FA790346DB011344C9B2E4
:10173000034AD15400E000BF0C37BD4680BC70475F
:101740002802002090B589B000AF0446381D80E81B
:1017500006001A462346FB731346BB73FB7B1F2B05
:1017600002D9FB7B7E2B01D900236DE0384B1B880F
:101770001A463B791344802B06DC354B5B881A46AE
:101780007B791344402B01DD00235DE00023FB61E6
:101790004CE0BA68FB7B203B797901FB03F31946E7
:1017A000FB690B445B0013441B887B610023BB6116
:1017B00034E07A69BB6902FA03F303F40043002BB7
:1017C00012D0234B1B88DAB2BB69DBB21344D8B208
:1017D0001F4B5B88DAB2FB69DBB21344DBB2BA7B26
:1017E0001946FFF75DFF16E0194B1B88DAB2BB699B
:1017F000DBB21344D8B2164B5B88DAB2FB69DBB2BA
:101800001344D9B2BB7B002B0CBF01230023DBB2F6
:101810001A46FFF745FFBB690133BB613B791A46A6
:10182000BB699342C5D3FB690133FB617B791A46DF
:10183000FB699342ADD3064B1A883B799BB21344A4
:101840009AB2034B1A80FB7B18462437BD4690BDE5
:101850002806002080B584B000AFF860381D80E80D
:101860000600FB7012E0FB681878FB783A1D06CA88
:10187000FFF768FF03461A46FB681B789A4202D0BE
:10188000FB681B7808E0FB680133FB60FB681B7892
:10189000002BE8D1FB681B7818461037BD4680BD89
:1018A00080B483B000AF03460A46FB711346BB7198
:1018B000FB799AB2054B1A80BB799AB2034B5A80D6
:1018C00000BF0C37BD4680BC704700BF2806002013
:1018D00090B589B000AF0446084611461A46234623
:1018E000FB710346BB710B467B7113463B717A79E2
:1018F000FB79D31A002BB8BF5B42BB613A79BB7945
:10190000D31A002BB8BF5B427B61FA797B799A428C
:1019100001D2012301E04FF0FF333B61BA793B79FB
:101920009A4201D2012301E04FF0FF33FB60BA6914
:101930007B69D31AFB6197F8302039797B79184697
:10194000FFF7AEFE24E097F83020B979FB7918460E
:10195000FFF7A6FEFB695B00BB607B695B42BA6870
:101960009A4208DDFA697B69D31AFB613B69DAB2F6
:10197000FB791344FB71BA68BB699A4208DAFA69C9
:10198000BB691344FB61FB68DAB2BB791344BB71DA
:10199000FA797B799A42D6D1BA793B799A42D2D1F7
:1019A00000BF2437BD4690BD90B587B002AF7860C8
:1019B0000B467B8013467B707B68002B2AD001236B
:1019C000FB8122E0FB8903F10043013B5B007A6865
:1019D00013441878FB8903F10043013B5B007A68EC
:1019E00013445978FB895B007A6813441C78FB899F
:1019F0005B007A6813445A787B780093134622463A
:101A0000FFF766FFFB890133FB81FA897B889A42E5
:101A1000D8D300E000BF1437BD4690BD00000000E1
:101A200080B582B000AF78607868FEF7F5FC0CA353
:101A3000D3E90023FEF748FD02460B46104619463F
:101A40004FF00002084BFEF769FE02460B461046B7
:101A50001946FEF7FBFF034618460837BD4680BD12
:101A60001F85EB51B81E09400080664080B485B0E8
:101A700000AF0346FB80FB88B3F5B47F02D8FB8838
:101A8000FB8113E0FB88DA080B49A1FB02129208E4
:101A90004FF4B47101FB02F29B1AFB81FB88002B0F
:101AA00001D0FB8801E04FF4B473FB81FB89184639
:101AB0001437BD4680BC7047176CC116B0B58AB0EC
:101AC00002AF0446084611461A462346FB710346F8
:101AD000BB710B467B7113467B800023FB610023A7
:101AE0007B613B8E1846FFF7C1FF03467B617B8815
:101AF0001846FFF7BBFF03461A46744B1B7802FBE0
:101B000003F3734A82FB03121A441212DB17D31A2F
:101B1000FB616E4B1B781A467B6902FB03F3DB0803
:101B20006C4AA2FB03239B083B617869FFF794F89A
:101B300004463869FFF790F8034619462046FFF738
:101B400097F90346FB60B7E0F869FFF785F80346AD
:101B5000F9681846FFF7D8F803461846FFF760FF04
:101B6000B861B869FEF758FC02460B4610461946A4
:101B700004F01EF904460D467B791846FEF73AFC40
:101B800002460B4620462946FEF79EFC02460B46BF
:101B900010461946FEF732FF03465BB2DAB2FB7914
:101BA0001344FB72B869FEF737FC02460B46104639
:101BB000194604F0B7F804460D467B791846FEF73F
:101BC00019FC02460B4620462946FEF77DFC0246DC
:101BD0000B4610461946FEF711FF03465BB2DAB218
:101BE000BB791344BB72FB690133FB61FA693B6942
:101BF0009A420DD0F869FFF72FF80346F9681846A6
:101C0000FFF782F803461846FFF70AFFB86107E0BE
:101C10007869FFF721F803461846FFF701FFB8611E
:101C2000B869FEF7F9FB02460B461046194604F068
:101C3000BFF804460D467B791846FEF7DBFB0246EB
:101C40000B4620462946FEF73FFC02460B4610464F
:101C50001946FEF7D3FE03465BB2DAB2FB791344B2
:101C60007B72B869FEF7D8FB02460B461046194650
:101C700004F058F804460D467B791846FEF7BAFB87
:101C800002460B4620462946FEF71EFC02460B463E
:101C900010461946FEF7B2FE03465BB2DAB2BB79D4
:101CA00013443B723C7A7A7AB97AF87A97F83430EE
:101CB00000932346FFF70CFEFA693B699A42FFF452
:101CC00043AF00BF2037BD46B0BD00BF18AE00080F
:101CD000B7600BB6176CC116B0B58CB002AF044636
:101CE000084611461A462346FB710346BB710B4654
:101CF0007B7113467B800023FB76002387F8273017
:101D00000023BB76002387F8263000233B620023A4
:101D10007B613B8F1846FFF7A9FE03467B617B88FA
:101D20001846FFF7A3FE03461A46A84B1B7802FB92
:101D300003F3A74A82FB03121A441212DB17D31AC9
:101D40003B62A24B1B781A467B6902FB03F3DB085C
:101D5000A04AA2FB03239B083B617869FEF77CFF46
:101D600004463869FEF778FF034619462046FFF718
:101D70007FF80346FB60386AFEF76EFF0346F9689A
:101D80001846FEF7C1FF03461846FFF749FEF86103
:101D9000F869FEF741FB02460B461046194604F06F
:101DA00007F804460D467B791846FEF723FB0246EA
:101DB0000B4620462946FEF787FB02460B46104697
:101DC0001946FEF71BFE03465BB2DAB2FB791344F9
:101DD000FB72F869FEF720FB02460B4610461946D7
:101DE00003F0A0FF04460D467B791846FEF702FB80
:101DF00002460B4620462946FEF766FB02460B4686
:101E000010461946FEF7FAFD03465BB2DAB2BB791B
:101E10001344BB72BBE0386AFEF71EFF0346F96845
:101E20001846FEF771FF03461846FFF7F9FDF86103
:101E3000F869FEF7F1FA02460B461046194603F020
:101E4000B7FF04460D467B791846FEF7D3FA0246E3
:101E50000B4620462946FEF737FB02460B46104646
:101E60001946FEF7CBFD03465BB2DAB2FB791344A9
:101E7000FB76F869FEF7D0FA02460B461046194683
:101E800003F050FF04460D467B791846FEF7B2FA80
:101E900002460B4620462946FEF716FB02460B4635
:101EA00010461946FEF7AAFD03465BB2DAB2BB79CB
:101EB0001344BB763B6A01333B623A6A3B699A4200
:101EC0000DD0386AFEF7C8FE0346F9681846FEF7DB
:101ED0001BFF03461846FFF7A3FDF86107E078698A
:101EE000FEF7BAFE03461846FFF79AFDF861F86957
:101EF000FEF792FA02460B461046194603F058FFC9
:101F000004460D467B791846FEF774FA02460B46E6
:101F100020462946FEF7D8FA02460B4610461946D7
:101F2000FEF76CFD03465BB2DAB2FB79134487F827
:101F30002730F869FEF770FA02460B46104619463C
:101F400003F0F0FE04460D467B791846FEF752FA80
:101F500002460B4620462946FEF7B6FA02460B46D5
:101F600010461946FEF74AFD03465BB2DAB2BB796A
:101F7000134487F8263097F8264097F82720B97E33
:101F8000F87E97F83C3000932346FFF7A1FC3A6AAD
:101F90003B699A42FFF43FAFBC7AFA7AB979F87993
:101FA00097F83C3000932346FFF792FC97F82640C1
:101FB00097F82720B979F87997F83C3000932346B1
:101FC000FFF786FC00BF2837BD46B0BD19AE00083C
:101FD000B7600BB6176CC11690B587B000AF04465A
:101FE000084611461A462346FB710346BB710B4651
:101FF0007B7113463B717B795B427B6100233B61C4
:102000007B79C3F101035B00FB6097F90730002B7C
:1020100065DBBB793F2B62D87B69DBB2FA79D31AD7
:10202000D8B23B69DAB2BB791344DBB23A791946CC
:10203000FFF736FB7B69DAB2FB791344D8B23B6910
:10204000DAB2BB791344DBB23A791946FFF728FBC1
:102050007B69DAB2FB791344D8B23B69DBB2BA7957
:10206000D31ADBB23A791946FFF71AFB7B69DBB268
:10207000FA79D31AD8B23B69DBB2BA79D31ADBB298
:102080003A791946FFF70CFBFB68BB60BA683B69FD
:102090009A4213DC3B6901333B613B695B000133CE
:1020A000FA681344FB607B695B423A699A4205D146
:1020B000BA687B699A4201DC0023BB60BA687B691D
:1020C0009A4208DD7B6901337B617B695B000133E8
:1020D000FA681344FB607B69002B9DDD00E000BFC4
:1020E0001C37BD4690BD90B589B000AF0446084688
:1020F00011461A462346FB710346BB710B467B71A2
:1021000013463B717B795B42FB610023BB617B79AA
:10211000C3F101035B007B6197F90730002B51DBB2
:10212000BB793F2B4ED8BB69DAB2BB791344FB7342
:1021300017E0FB69DBB2FA79D31ABB7308E03A798E
:10214000F97BBB7B1846FFF7ABFABB7B013BBB734C
:10215000BA7BF979FB690B449A42F0DAFB7B013BCD
:10216000FB73FA7BB979BB69CB1A9A42E1DA7B69D6
:102170003B613A69BB699A4213DCBB690133BB61BD
:10218000BB695B0001337A6913447B61FB695B4285
:10219000BA699A4205D13A69FB699A4201DC002387
:1021A0003B613A69FB699A4208DDFB690133FB61D7
:1021B000FB695B0001337A6913447B61FB69002B87
:1021C000B1DD00E000BF2437BD4690BD90B585B0BD
:1021D00002AF0446084611461A462346FB710346E1
:1021E000BB710B467B7113463B71BC797A79B97927
:1021F000F8793B7E00932346FFF76AFB3C797A79B6
:10220000B97978793B7E00932346FFF761FB3C79EF
:10221000FA79397978793B7E00932346FFF758FBAA
:10222000BC79FA793979F8793B7E00932346FFF738
:102230004FFB00BF0C37BD4690BD90B585B000AFD9
:102240000446084611461A462346FB710346BB71F5
:102250000B467B7113463B71FA797B79934228BF19
:1022600013467B737A79FB79934238BF13463B73ED
:10227000BA793B79934228BF1346FB723A79BB790E
:10228000934238BF1346BB72FB7AFB7317E07B7B2C
:10229000BB7309E097F82020F97BBB7B1846FFF75A
:1022A000FFF9BB7B0133BB73BA7B3B7B9A4203D8FC
:1022B00097F90E30002BEDDAFB7B0133FB73FA7BD1
:1022C000BB7A9A4203D8FB7B3F2BE0D900BF00BF0B
:1022D0001437BD4690BD80B584B000AF3A601A4651
:1022E0000346FB710B46BB7113467B717B79073349
:1022F000002B00DA0733DB107B810023FB7397F997
:102300000730002B3EDBBB793F2B3BD80023BB7350
:1023100033E000237B7326E07B7B03F00703002B75
:1023200003D0FB7B5B00FB730DE0BB7BB7F90A209E
:1023300002FB03F37A7BD208D2B213441A463B68FD
:1023400013441B78FB7397F90F30002B08DAFA79E6
:102350007B7B1344DBB23A7FB9791846FFF7A0F9CB
:102360007B7B01337B737A7B7B799A42D4D3BB7BB3
:102370000133BB73BB790133BB71BA7B3B7E9A429D
:10238000C7D300E000BF1037BD4680BD80B584B024
:1023900000AF0346FB718123FB73FB7B1846FFF7FD
:1023A000A3F8FB791846FFF79FF800BF1037BD462A
:1023B00080BD000080B584B000AF0346FB71FB799F
:1023C000002B05D0AF23FB73084B01225A7104E0A8
:1023D000AE23FB73054B00225A71FB7B1846FFF7B7
:1023E00083F800BF1037BD4680BD00BF280600201F
:1023F00080B582B000AF0020FFF712F90023FB7117
:102400000023BB71B979FB7900221846FFF748F920
:10241000BB79002B06D1FB797E2B03D8FB790133E6
:10242000FB7116E0FB797F2B06D1BB793E2B03D8DD
:10243000BB790133BB710CE0BB793F2B06D1FB7933
:10244000002B03D0FB79013BFB7102E0BB79013B20
:10245000BB71B979FB7901221846FFF721F9FFF723
:10246000F7F8052000F016FDFB79002BCAD1BB79E7
:10247000002BC7D14FF47A7000F00CFD00BF083775
:10248000BD4680BD80B582B000AF0023FB71002047
:10249000FFF7C6F8FB7919460220FFF701FA1B4A3D
:1024A000012306CA1A48FFF7D5F9FB791A33FB71E5
:1024B000FB7919460220FFF7F3F9164A012306CAF1
:1024C0001548FFF7C7F9FB791233FB71FB79194601
:1024D0000220FFF7E5F9114A012306CA1048FFF769
:1024E000B9F9FB790A33FB71FB7919460220FFF732
:1024F000D7F90C4A012306CA0B48FFF7ABF9FFF7DF
:10250000A7F800BF0837BD4680BD00BF18000020F7
:10251000C06D000810000020CC6D000808000020ED
:10252000D86D000800000020E46D000890B585B06B
:1025300002AF0020FFF774F804210020FFF7B0F984
:10254000134A012306CA1348FFF784F92421002007
:10255000FFF7A6F90E4A012306CA0F48FFF77AF9DA
:102560006023FB713C23BB71FB7910337B71BB791A
:1025700002333B713B797A79B979F8790124009477
:10258000FFF75BFEFFF764F800BF0C37BD4690BD58
:1025900020000020F06D0008FC6D0008B0B598B078
:1025A00000AF0120FFF73CF800F06AFCB865BB6D96
:1025B0007B650023FB65424A07F1440307CA83E8B1
:1025C000070000210220FFF76BF93E4A002306CAEC
:1025D0003D48FFF73FF924210220FFF761F9394A0E
:1025E000002306CA3948FFF735F912210220FFF708
:1025F00057F9344A07F14400002306CAFFF72AF9C5
:10260000FFF726F897F8443087F8533007F1440372
:10261000013307F144000A22194602F0FBFE97F845
:10262000533087F84E30FB6D0133FB6500F028FC1A
:1026300078657A6DBB6DD31A41F287329342D4D953
:1026400041F2883000F026FCF86DFEF709FB0346E6
:102650001846FDF7E1FE04460D467A6DBB6DD31AB0
:102660001846FDF7B7FE4FF00002194BFEF756F87B
:1026700002460B4620462946FEF750F802460B4616
:1026800010461946FEF7BAF90346FB65381DFB6D87
:10269000104A402102F0E0FE0120FEF7C1FF0221B6
:1026A0000220FFF7FDF8074A381D002306CAFFF78E
:1026B000D1F8FEF7CDFF00BF6037BD46B0BD00BF0B
:1026C000286E000810000020086E0008146E000834
:1026D00000408F40206E000880B582B002AF012319
:1026E00000933F237F2201210120FFF7F1F801230E
:1026F00000933F23012201217F20FFF7E9F8FEF735
:10270000A7FF00BFBD4680BD90B585B002AF0023D6
:102710007B6028E07B68DBB21A4692001344DBB290
:102720000133D8B27B68DBB21A4692001344DBB2A5
:102730000133D9B27B68DBB21A4692001344DBB294
:10274000C3F17F03DAB27B68DBB21C46A4002344EA
:10275000DBB2C3F13F03DBB201240094FFF736FD87
:102760007B6801337B607B68042BD3D9FEF770FF55
:1027700000BF0C37BD4690BD80B582B002AF0123CB
:1027800000932323412201211F20FFF756FD01233F
:1027900000933C2346222D210A20FFF74EFD012302
:1027A00000932D2364220A214B20FFF746FD0023CE
:1027B0000093372350221E213720FFF73EFDFEF7FE
:1027C00047FF00BFBD4680BD80B582B000AF00238B
:1027D0007B6010E07B68DBB21A46920013449B00DA
:1027E000DBB21E33D8B201230A220F21FFF7F4FB1C
:1027F0007B6801337B607B68042BEBD900237B6013
:1028000011E07B68DBB21A4652001A44D200D31A98
:10281000DBB20F33D8B201230A222821FFF763FC71
:102820007B6801337B607B68042BEAD9FEF710FFDD
:1028300000BF0837BD4680BD80B582B002AF01231E
:1028400001934FF48773009314231E221E211E2030
:10285000FFF734F9012301934FF4877300931E238C
:102860000A2237215020FFF737FAFEF7F1FE00BFAA
:10287000BD4680BD90B585B000AF084B3C460FCB40
:1028800007C423803B46012207211846FFF78CF836
:10289000FEF7DEFE00BF1437BD4690BD346E000863
:1028A00080B582B002AF0120FEF7BAFE002301938B
:1028B000402300938023184A00210020FFF70BFDDE
:1028C000FEF7C6FE40F6B83000F0E4FA0020FEF74E
:1028D000A7FE012301934023009340230F4A0021C8
:1028E0002020FFF7F8FCFEF7B3FE40F6B83000F00A
:1028F000D1FA0120FEF794FE0023019340230093B8
:102900004023064A00212020FFF7E5FCFEF7A0FE49
:1029100000BFBD4680BD00BF1CAE00081CB2000851
:1029200080B500AFFEF712FEFFF738FE40F6B83074
:1029300000F0B0FAFFF75CFDFFF7A4FD40F6B830F9
:1029400000F0A8FAFFF7F2FD40F6B83000F0A2FA66
:102950000020FEF765FEFFF7D7FEFFF7BDFE40F64D
:10296000B83000F097FA0020FEF75AFEFFF704FF98
:1029700040F6B83000F08EFA0020FEF751FEFFF767
:1029800079FF40F6B83000F085FA0020FEF748FEE7
:10299000FFF752FF40F6B83000F07CFA0020FEF757
:1029A0003FFEFFF711FF40F6B83000F073FAFFF773
:1029B00077FF40F6B83000F06DFA00BF80BD000030
:1029C00080B483B000AF0E4B9B690D4A43F0010306
:1029D00093610B4B9B6903F001037B607B68084BA1
:1029E000DB69074A43F08053D361054BDB6903F091
:1029F00080533B603B6800BF0C37BD4680BC7047CE
:102A00000010024080B588B000AF786007F1100375
:102A100000221A605A609A60DA607B681B68164A66
:102A2000934224D1154B9B69144A43F008039361E8
:102A3000124B9B6903F00803FB60FB684FF4406393
:102A40003B6112237B610323FB6107F110031946ED
:102A50000B4800F051FB094BDB69084A43F4800343
:102A6000D361064BDB6903F48003BB60BB6800BF26
:102A70002037BD4680BD00BF005800400010024016
:102A8000000C014080B58CB000AF786007F12003E6
:102A900000221A605A609A60DA607B681B684C4AB0
:102AA00093422DD14B4B9B694A4A43F40063936197
:102AB000484B9B6903F40063FB61FB69454B9B69D1
:102AC000444A43F004039361424B9B6903F00403BF
:102AD000BB61BB694FF440733B6200237B62002300
:102AE000BB6207F1200319463B4800F005FB0022BA
:102AF0000021192000F0C9FA192000F0E2FA62E082
:102B00007B681B68354A93422CD1324BDB69314AD2
:102B100043F00203D3612F4BDB6903F002037B61B7
:102B20007B692C4B9B692B4A43F004039361294B2F
:102B30009B6903F004033B613B69C0233B620023B4
:102B40007B620023BB6207F120031946224800F094
:102B5000D3FA002200211D2000F097FA1D2000F07A
:102B6000B0FA30E07B681B681D4A93422BD1194BA9
:102B7000DB69184A43F00403D361164BDB6903F0A9
:102B80000403FB60FB68134B9B69124A43F0080384
:102B90009361104B9B6903F00803BB60BB68C023C3
:102BA0003B6200237B620023BB6207F120031946CE
:102BB0000C4800F0A1FA002200211E2000F065FA66
:102BC0001E2000F07EFA00BF3037BD4680BD00BF3A
:102BD000002C0140001002400008014000040040A9
:102BE00000080040000C014080B485B000AF786060
:102BF0007B681B68B3F1804F0BD1084BDB69074A38
:102C000043F00103D361054BDB6903F00103FB6073
:102C1000FB6800BF1437BD4680BC704700100240FF
:102C200080B588B000AF786007F1100300221A6009
:102C30005A609A60DA607B681B68B3F1804F17D1E5
:102C40000D4B9B690C4A43F0040393610A4B9B694B
:102C500003F00403FB60FB6807233B6102237B61F5
:102C60000223FB6107F110031946044800F044FAFF
:102C700000BF2037BD4680BD001002400008014063
:102C800080B400AFFEE780B400AFFEE780B400AFD1
:102C9000FEE780B400AFFEE780B400AFFEE780B48B
:102CA00000AF00BFBD4680BC704780B400AF00BF1E
:102CB000BD4680BC704780B400AF00BFBD4680BC3D
:102CC000704780B500AF00F0C9F800BF80BD0000BC
:102CD00080B500AF024801F0B6FD00BF80BD00BF67
:102CE0000801002080B500AF024801F0ACFD00BF34
:102CF00080BD00BF9801002080B500AF024801F000
:102D0000A2FD00BF80BD00BFE001002080B586B0FD
:102D100000AF7860144A154BD31A7B617B693B6125
:102D2000134B1B68002B02D1114B124A1A60104B37
:102D30001A687B6813443A699A4207D202F032FB60
:102D400003460C221A604FF0FF3309E0084B1B6862
:102D5000FB60074B1A687B681344054A1360FB68E5
:102D600018461837BD4680BD005000200004000002
:102D7000300600204806002080B400AF00BFBD46EA
:102D800080BC7047FFF7F8FF0B480C490C4A002342
:102D900002E0D458C4500433C4188C42F9D3094A11
:102DA000094C002301E013600432A242FBD302F07D
:102DB000FFFAFEF7F9F870470000002098000020A5
:102DC00060B600089800002048060020FEE70000DA
:102DD00080B500AF084B1B68074A43F0100313602F
:102DE000032000F047F90F2000F008F8FFF7E8FD96
:102DF0000023184680BD00BF0020024080B582B08D
:102E000000AF7860124B1A68124B1B7819464FF4CA
:102E10007A73B3FBF1F3B2FBF3F3184600F05FF9FA
:102E20000346002B01D001230EE07B680F2B0AD84C
:102E3000002279684FF0FF3000F027F9064A7B68DE
:102E40001360002300E0012318460837BD4680BD0B
:102E500028000020300000202C00002080B400AFAB
:102E6000054B1B781A46054B1B681344034A136035
:102E700000BFBD4680BC70473000002034060020F3
:102E800080B400AF024B1B681846BD4680BC70473B
:102E90003406002080B584B000AF7860FFF7F0FF03
:102EA000B8607B68FB60FB68B3F1FF3F05D00A4B5D
:102EB0001B781A46FB681344FB6000BFFFF7E0FF76
:102EC0000246BB68D31AFA689A42F7D800BF00BF1F
:102ED0001037BD4680BD00BF3000002080B485B0F3
:102EE00000AF78607B6803F00703FB600C4BDB6886
:102EF000BB60BA684FF6FF031340BB60FB681A0261
:102F0000BB68134343F0BF6343F40033BB60044A20
:102F1000BB68D36000BF1437BD4680BC704700BF9C
:102F200000ED00E080B400AF044BDB681B0A03F047
:102F300007031846BD4680BC704700BF00ED00E0A7
:102F400080B483B000AF0346FB7197F90730002BC4
:102F50000BDBFB7903F01F02064997F907305B0989
:102F6000012000FA02F241F8232000BF0C37BD46D1
:102F700080BC704700E100E080B483B000AF03463E
:102F80003960FB7197F90730002B0ADB3B68DAB236
:102F90000C4997F907301201D2B20B4483F8002391
:102FA0000AE03B68DAB20849FB7903F00F03043BFF
:102FB0001201D2B20B441A7600BF0C37BD4680BC5A
:102FC000704700BF00E100E000ED00E080B489B090
:102FD00000AFF860B9607A60FB6803F00703FB613B
:102FE000FB69C3F10703042B28BF0423BB61FB6902
:102FF0000433062B02D9FB69033B00E000237B610D
:103000004FF0FF32BB6902FA03F3DA43BB681A40A0
:103010007B699A404FF0FF317B6901FA03F3D94392
:103020007B680B40134318462437BD4680BC70476D
:1030300080B582B000AF78607B68013BB3F1807FE0
:1030400001D301230FE00A4A7B68013B53600F2143
:103050004FF0FF30FFF790FF054B00229A60044BC2
:1030600007221A60002318460837BD4680BD00BFFE
:1030700010E000E080B582B000AF78607868FFF7BC
:103080002DFF00BF0837BD4680BD80B586B000AFBC
:103090000346B9607A60FB7300237B61FFF742FF50
:1030A00078617A68B9687869FFF790FF024697F906
:1030B0000F3011461846FFF75FFF00BF1837BD46B7
:1030C00080BD80B582B000AF0346FB7197F9073031
:1030D0001846FFF735FF00BF0837BD4680BD80B5F5
:1030E00082B000AF78607868FFF7A2FF0346184609
:1030F0000837BD4680BD000080B48BB000AF78605B
:10310000396000237B6200233B6269E101227B6A14
:1031100002FA03F3FB613B681B68FA691340BB6169
:10312000BA69FB699A4240F058813B685B689A4AE9
:1031300093425ED0984A934275D8984A934258D0A9
:10314000964A93426FD8964A934252D0944A9342F9
:1031500069D8944A93424CD0924A934263D8924A97
:10316000934246D0904A93425DD8122B2AD8122B14
:1031700059D801A252F823F0F3310008CD310008EC
:10318000DF3100082132000827320008273200080A
:1031900027320008273200082732000827320008AB
:1031A000273200082732000827320008273200089B
:1031B000273200082732000827320008D5310008DE
:1031C000E9310008794A934213D02CE03B68DB6870
:1031D0003B6229E03B68DB6804333B6224E03B68E8
:1031E000DB6808333B621FE03B68DB680C333B6203
:1031F0001AE03B689B68002B02D104233B6213E07A
:103200003B689B68012B05D108233B627B68FA6908
:103210001A6109E008233B627B68FA695A6103E09E
:1032200000233B6200E000BFBB69FF2B01D87B6835
:1032300001E07B6804337B61BB69FF2B02D87B6AAA
:103240009B0002E07B6A083B9B003B617B691A683C
:103250000F213B6901FA03F3DB431A40396A3B69EA
:1032600001FA03F31A437B691A603B685B6803F059
:103270008053002B00F0B1804D4B9B694C4A43F0CA
:10328000010393614A4B9B6903F00103BB60BB6878
:10329000484A7B6A9B08023352F82330FB607B6A02
:1032A00003F003039B000F2202FA03F3DB43FA68E7
:1032B0001340FB607B68404A934213D07B683F4ACF
:1032C00093420DD07B683E4A934207D07B683D4ACB
:1032D000934201D1032306E0042304E0022302E029
:1032E000012300E000237A6A02F003029200934077
:1032F000FA681343FB602F497B6A9B080233FA6824
:1033000041F823203B685B6803F48013002B06D050
:103310002D4B9A682C49BB6913438B6006E02A4BFE
:103320009A68BB69DB43284913408B603B685B6844
:1033300003F40013002B06D0234BDA682249BB6943
:103340001343CB6006E0204BDA68BB69DB431E49C0
:103350001340CB603B685B6803F40033002B06D05E
:10336000194B5A681849BB6913434B6006E0164B6A
:103370005A68BB69DB43144913404B603B685B6888
:1033800003F48033002B21D00F4B1A680E49BB6920
:1033900013430B6021E000BF000032100000311029
:1033A0000000221000002110000012100000111077
:1033B000001002400000014000080140000C0140E4
:1033C0000010014000140140000401400B4B1A683A
:1033D000BB69DB43094913400B607B6A01337B62A5
:1033E0003B681A687B6A22FA03F3002B7FF48EAEE7
:1033F00000BF00BF2C37BD4680BC704700040140B1
:1034000080B483B000AF78600B467B8013467B703E
:103410007B78002B03D07A887B681A6103E07B8875
:103420001A047B681A6100BF0C37BD4680BC704728
:1034300080B485B000AF78600B467B807B68DB682A
:10344000FB607A88FB6813401A04FB68D9437B88C9
:103450000B401A437B681A6100BF1437BD4680BC1D
:103460007047000080B584B000AF78607B68002BA7
:1034700001D101232BE17B6893F83D30DBB2002BB7
:1034800006D17B68002283F83C207868FFF7BAFAFF
:103490007B68242283F83D207B681B681A687B6860
:1034A0001B6822F001021A607B681B681A687B683F
:1034B0001B6842F400421A607B681B681A687B68CC
:1034C0001B6822F400421A6001F042F8F8607B6841
:1034D0005B68814A934207D8FB68804A934294BF55
:1034E00001230023DBB206E0FB687D4A934294BFD0
:1034F00001230023DBB2002B01D00123E7E0FB68AE
:10350000784AA2FB03239B0CBB607B681B685B684B
:1035100023F03F017B681B68BA680A435A607B68E6
:103520001B681B6A23F03F017B685B686A4A934211
:1035300002D8BB68013309E0BB684FF4967202FB06
:1035400003F3694AA2FB03239B0901337A681268DB
:103550000B4313627B681B68DB6923F44F4222F044
:10356000FF027B685B685C498B4219D8FB68591E77
:103570007B685B685B00B1FBF3F3591C40F6FC739E
:103580000B40002B0AD0FB68591E7B685B685B0010
:10359000B1FBF3F30133C3F30B0351E004234FE01A
:1035A0007B689B68002B11D1FB68581E7B685968AB
:1035B0000B465B000B44B0FBF3F30133C3F30B0387
:1035C000002B0CBF01230023DBB212E0FB68581E66
:1035D0007B6859680B469B000B4499000B44B0FB79
:1035E000F3F30133C3F30B03002B0CBF01230023C0
:1035F000DBB2002B01D0012322E07B689B68002B0B
:103600000ED1FB68581E7B6859680B465B000B4463
:10361000B0FBF3F30133C3F30B0343F400430FE0B8
:10362000FB68581E7B6859680B469B000B44990049
:103630000B44B0FBF3F30133C3F30B0343F44043F8
:10364000796809681343CB617B681B681B6823F0AA
:10365000C0017B68DA697B681B6A1A437B681B6858
:103660000A431A607B681B689B6823F4034323F0BA
:10367000FF037A6811697A68D26811437A68126820
:103680000B4393607B681B68DB6823F0FF017B685A
:103690005A697B689B691A437B681B680A43DA6036
:1036A0007B681B681A687B681B6842F001021A601D
:1036B0007B6800221A647B68202283F83D207B68A7
:1036C00000221A637B68002283F83E2000231846FC
:1036D0001037BD4680BD00BFA08601007F841E005C
:1036E000FF083D0083DE1B43D34D621080B588B0D8
:1036F00002AFF860084611461A4603467B810B4626
:103700003B811346FB80FFF7BBFB7861FB6893F8B6
:103710003D30DBB2202B40F0D9807B690093192328
:1037200001226D49F86800F071F90346002B01D0C1
:103730000223CCE0FB6893F83C30012B01D102233B
:10374000C5E0FB68012283F83C20FB681B681B680E
:1037500003F00103012B07D0FB681B681A68FB68A4
:103760001B6842F001021A60FB681B681A68FB685C
:103770001B6822F400621A60FB68212283F83D2056
:10378000FB68402283F83E20FB6800221A64FB6835
:103790003A6A5A62FB68BA8C5A85FB685B8D9AB2AA
:1037A000FB681A85FB684D4ADA62F8883A8979899C
:1037B0007B690193BB6A00930346F86800F090F8B8
:1037C0000346002B52D0012381E07A69B96AF86878
:1037D00000F036FA0346002B0DD0FB681B6C042B5F
:1037E00007D1FB681B681A68FB681B6842F400720B
:1037F0001A6001236BE0FB685B6A1A78FB681B6840
:103800001A61FB685B6A5A1CFB685A62FB681B8D75
:10381000013B9AB2FB681A85FB685B8D9BB2013B4A
:103820009AB2FB685A85FB681B685B6903F0040366
:10383000042B1BD1FB681B8D002B17D0FB685B6A28
:103840001A78FB681B681A61FB685B6A5A1CFB6884
:103850005A62FB681B8D013B9AB2FB681A85FB68B4
:103860005B8D9BB2013B9AB2FB685A85FB681B8D4E
:10387000002BAAD17A69B96AF86800F029FA0346E0
:10388000002B0DD0FB681B6C042B07D1FB681B6859
:103890001A68FB681B6842F400721A60012316E084
:1038A000FB681B681A68FB681B6842F400721A60A8
:1038B000FB68202283F83D20FB68002283F83E202D
:1038C000FB68002283F83C20002300E00223184616
:1038D0001837BD4680BD00BF020010000000FFFF8A
:1038E00080B588B002AFF860084611461A46034614
:1038F0007B810B463B811346FB80FB681B681A6883
:10390000FB681B6842F480721A607B6A00933B6A12
:1039100000224FF00111F86800F078F80346002B00
:103920000DD0FB681B681B6803F48073B3F5807FC0
:1039300003D1FB684FF400721A6403235FE07B89B4
:10394000DBB21A46FB681B6802F0FE021A617B6A52
:103950003A6A2D49F86800F0D3F80346002B01D0ED
:1039600001234CE000237B61FB681B685B697B6182
:10397000FB681B689B697B617B697A6A396AF868B6
:1039800000F05EF90346002B0DD0FB681B6C042B86
:1039900007D1FB681B681A68FB681B6842F4007259
:1039A0001A6001232BE0FB88012B05D13B89DAB299
:1039B000FB681B681A6121E03B891B0A9BB2DAB2E3
:1039C000FB681B681A617A6A396AF86800F038F98E
:1039D0000346002B0DD0FB681B6C042B07D1FB6842
:1039E0001B681A68FB681B6842F400721A600123A6
:1039F00005E03B89DAB2FB681B681A6100231846B0
:103A00001837BD4680BD00BF0200010080B584B0FC
:103A100000AFF860B9603B601346FB7148E03B685B
:103A2000B3F1FF3F44D0FFF72BFA0246BB69D31A2C
:103A30003A689A4202D33B68002B39D1BB681B0C11
:103A4000DBB2012B0DD1FB681B685B69DA43BB68F5
:103A500013409BB2002B0CBF01230023DBB21A469C
:103A60000CE0FB681B689B69DA43BB6813409BB2A0
:103A7000002B0CBF01230023DBB21A46FB799A42CC
:103A800016D1FB6800221A63FB68202283F83D20D0
:103A9000FB68002283F83E20FB681B6C43F0200289
:103AA000FB681A64FB68002283F83C20012323E0B2
:103AB000BB681B0CDBB2012B0DD1FB681B685B697B
:103AC000DA43BB6813409BB2002B0CBF01230023D9
:103AD000DBB21A460CE0FB681B689B69DA43BB68E3
:103AE00013409BB2002B0CBF01230023DBB21A460C
:103AF000FB799A4293D0002318461037BD4680BD0B
:103B000080B584B000AFF860B9607A603B6071E066
:103B1000FB681B685B6903F48063B3F5806F23D196
:103B2000FB681B681A68FB681B6842F400721A6025
:103B3000FB681B686FF480625A61FB6800221A639D
:103B4000FB68202283F83D20FB68002283F83E209A
:103B5000FB681B6C43F00402FB681A64FB680022DC
:103B600083F83C20012367E07B68B3F1FF3F41D03D
:103B7000FFF786F902463B68D31A7A689A4202D365
:103B80007B68002B36D1BB681B0CDBB2012B0CD140
:103B9000FB681B685B69DA43BB6813409BB2002B70
:103BA00014BF01230023DBB20BE0FB681B689B6999
:103BB000DA43BB6813409BB2002B14BF01230023E0
:103BC000DBB2002B16D0FB6800221A63FB682022B0
:103BD00083F83D20FB68002283F83E20FB681B6CC5
:103BE00043F02002FB681A64FB68002283F83C2043
:103BF000012321E0BB681B0CDBB2012B0CD1FB685D
:103C00001B685B69DA43BB6813409BB2002B14BF8F
:103C100001230023DBB20BE0FB681B689B69DA43DE
:103C2000BB6813409BB2002B14BF01230023DBB2FF
:103C3000002B7FF46DAF002318461037BD4680BDC2
:103C400080B584B000AFF860B9607A6034E0F8689D
:103C500000F086F80346002B01D0012334E0BB6856
:103C6000B3F1FF3F28D0FFF70BF902467B68D31A68
:103C7000BA689A4202D3BB68002B1DD1FB681B684F
:103C80005B6903F08003802B16D0FB6800221A6367
:103C9000FB68202283F83D20FB68002283F83E2049
:103CA000FB681B6C43F02002FB681A64FB6800226F
:103CB00083F83C20012307E0FB681B685B6903F085
:103CC0008003802BC3D1002318461037BD4680BD2A
:103CD00080B584B000AFF860B9607A6034E0F8680D
:103CE00000F03EF80346002B01D0012334E0BB680E
:103CF000B3F1FF3F28D0FFF7C3F802467B68D31A21
:103D0000BA689A4202D3BB68002B1DD1FB681B68BE
:103D10005B6903F00403042B16D0FB6800221A63CE
:103D2000FB68202283F83D20FB68002283F83E20B8
:103D3000FB681B6C43F02002FB681A64FB680022DE
:103D400083F83C20012307E0FB681B685B6903F0F4
:103D50000403042BC3D1002318461037BD4680BD91
:103D600080B483B000AF78607B681B685B6903F444
:103D70008063B3F5806F1BD17B681B686FF4806232
:103D80005A617B6800221A637B68202283F83D20F9
:103D90007B68002283F83E207B681B6C43F00402A2
:103DA0007B681A647B68002283F83C20012300E0D2
:103DB000002318460C37BD4680BC704780B586B0DE
:103DC00000AF78607B68002B01D1012372E27B6831
:103DD0001B6803F00103002B00F08780924B5B68A7
:103DE00003F00C03042B0CD08F4B5B6803F00C0327
:103DF000082B12D18C4B5B6803F48033B3F5803F02
:103E00000BD1894B1B6803F40033002B6CD07B680B
:103E10005B68002B68D101234CE27B685B68B3F5DB
:103E2000803F06D1804B1B687F4A43F48033136088
:103E30002EE07B685B68002B0CD17B4B1B687A4AB9
:103E400023F480331360784B1B68774A23F4802374
:103E500013601DE07B685B68B3F5A02F0CD1724B3B
:103E60001B68714A43F4802313606F4B1B686E4AD2
:103E700043F4803313600BE06B4B1B686A4A23F4F6
:103E800080331360684B1B68674A23F480231360F8
:103E90007B685B68002B13D0FEF7F2FF386108E007
:103EA000FEF7EEFF02463B69D31A642B01D90323C8
:103EB00000E25D4B1B6803F40033002BF0D014E0EC
:103EC000FEF7DEFF386108E0FEF7DAFF02463B69E5
:103ED000D31A642B01D90323ECE1534B1B6803F481
:103EE0000033002BF0D100E000BF7B681B6803F0BB
:103EF0000203002B63D04C4B5B6803F00C03002BD8
:103F00000BD0494B5B6803F00C03082B1CD1464BCC
:103F10005B6803F48033002B16D1434B1B6803F01E
:103F20000203002B05D07B681B69012B01D0012304
:103F3000C0E13D4B1B6823F0F8027B685B69DB0046
:103F4000394913430B603AE07B681B69002B20D092
:103F5000364B01221A60FEF793FF386108E0FEF746
:103F60008FFF02463B69D31A022B01D90323A1E13B
:103F70002D4B1B6803F00203002BF0D02A4B1B686B
:103F800023F0F8027B685B69DB00274913430B6071
:103F900015E0264B00221A60FEF772FF386108E038
:103FA000FEF76EFF02463B69D31A022B01D90323A9
:103FB00080E11D4B1B6803F00203002BF0D17B68EE
:103FC0001B6803F00803002B3AD07B689B69002B29
:103FD00019D0174B01221A60FEF752FF386108E032
:103FE000FEF74EFF02463B69D31A022B01D9032389
:103FF00060E10D4B5B6A03F00203002BF0D001205F
:1040000000F0BAFA1CE00A4B00221A60FEF738FFF3
:1040100038610FE0FEF734FF02463B69D31A022BEA
:1040200008D9032346E100BF0010024000004242CD
:1040300080044242924B5B6A03F00203002BE9D1F9
:104040007B681B6803F00403002B00F0A6800023AC
:10405000FB758B4BDB6903F08053002B0DD1884B34
:10406000DB69874A43F08053D361854BDB6903F0FA
:104070008053BB60BB680123FB75824B1B6803F454
:104080008073002B18D17F4B1B687E4A43F48073EA
:104090001360FEF7F5FE386108E0FEF7F1FE024618
:1040A0003B69D31A642B01D9032303E1754B1B68C9
:1040B00003F48073002BF0D07B68DB68012B06D102
:1040C0006F4B1B6A6E4A43F0010313622DE07B685D
:1040D000DB68002B0CD16A4B1B6A694A23F0010391
:1040E0001362674B1B6A664A23F0040313621CE0E9
:1040F0007B68DB68052B0CD1614B1B6A604A43F07F
:10410000040313625E4B1B6A5D4A43F001031362B2
:104110000BE05B4B1B6A5A4A23F001031362584BB6
:104120001B6A574A23F0040313627B68DB68002B89
:1041300015D0FEF7A5FE38610AE0FEF7A1FE0246A3
:104140003B69D31A41F28832934201D90323B1E08B
:104150004B4B1B6A03F00203002BEED014E0FEF77A
:104160008FFE38610AE0FEF78BFE02463B69D31AE8
:1041700041F28832934201D903239BE0404B1B6AF2
:1041800003F00203002BEED1FB7D012B05D13C4B4C
:10419000DB693B4A23F08053D3617B68DB69002BEA
:1041A00000F08780364B5B6803F00C03082B61D06E
:1041B0007B68DB69022B46D1334B00221A60FEF785
:1041C0005FFE386108E0FEF75BFE02463B69D31AEA
:1041D000022B01D903236DE0294B1B6803F0007308
:1041E000002BF0D17B681B6AB3F5803F08D1244BCC
:1041F0005B6823F400327B689B68214913434B6062
:104200001F4B5B6823F474127B68196A7B685B6AD6
:104210000B431B4913434B601B4B01221A60FEF7F3
:104220002FFE386108E0FEF72BFE02463B69D31AE9
:10423000022B01D903233DE0114B1B6803F00073EF
:10424000002BF0D035E0104B00221A60FEF718FE6C
:10425000386108E0FEF714FE02463B69D31A022BD0
:1042600001D9032326E0064B1B6803F00073002BE3
:10427000F0D11EE07B68DB69012B07D1012319E037
:104280000010024000700040600042420B4B5B682F
:10429000FB60FB6803F480327B681B6A9A4206D19C
:1042A000FB6803F470127B685B6A9A4201D00123B9
:1042B00000E0002318461837BD4680BD00100240BC
:1042C00080B584B000AF786039607B68002B01D185
:1042D0000123D0E06A4B1B6803F007033A689A4257
:1042E00010D9674B1B6823F0070265493B681343ED
:1042F0000B60634B1B6803F007033A689A4201D0D6
:104300000123B8E07B681B6803F00203002B20D078
:104310007B681B6803F00403002B05D0594B5B68D6
:10432000584A43F4E06353607B681B6803F008035A
:10433000002B05D0534B5B68524A43F460535360E3
:10434000504B5B6823F0F0027B689B684D49134338
:104350004B607B681B6803F00103002B40D07B6837
:104360005B68012B07D1474B1B6803F40033002B1C
:1043700015D101237FE07B685B68022B07D1414B9D
:104380001B6803F00073002B09D1012373E03D4B40
:104390001B6803F00203002B01D101236BE0394BB2
:1043A0005B6823F003027B685B68364913434B600C
:1043B000FEF766FDF8600AE0FEF762FD0246FB6864
:1043C000D31A41F28832934201D9032353E02D4B93
:1043D0005B6803F00C027B685B689B009A42EBD140
:1043E000274B1B6803F007033A689A4210D2244B0C
:1043F0001B6823F0070222493B6813430B60204BE4
:104400001B6803F007033A689A4201D0012332E0A7
:104410007B681B6803F00403002B08D0194B5B6812
:1044200023F4E0627B68DB68164913434B607B68CA
:104430001B6803F00803002B09D0124B5B6823F4C0
:1044400060527B681B69DB000E4913434B6000F030
:1044500021F802460B4B5B681B0903F00F030A4966
:10446000CB5C22FA03F3094A1360094B1B68184618
:10447000FEF7C4FC002318461037BD4680BD00BFC0
:1044800000200240001002401CB400082800002058
:104490002C00002080B487B000AF0023FB60002315
:1044A000BB6000237B6100237B6000233B611E4BCC
:1044B0005B68FB60FB6803F00C03042B02D0082B45
:1044C00003D027E0194B3B6127E0FB689B0C03F00E
:1044D0000F03174AD35C7B60FB6803F48033002B27
:1044E00010D0114B5B685B0C03F00103114AD35CE5
:1044F000BB607B680D4A03FB02F2BB68B2FBF3F3BF
:104500007B6104E07B680C4A02FB03F37B617B69FF
:104510003B6102E0054B3B6100BF3B6918461C371D
:10452000BD4680BC704700BF0010024000127A00F8
:1045300034B4000844B4000800093D0080B400AF62
:10454000024B1B681846BD4680BC704728000020FF
:1045500080B500AFFFF7F2FF0246054B5B681B0A10
:1045600003F007030349CB5C22FA03F3184680BD2E
:10457000001002402CB4000880B485B000AF786011
:104580000A4B1B680A4AA2FB03235B0A7A6802FBF8
:1045900003F3FB6000BFFB685A1EFA60002BF9D1E1
:1045A00000BF00BF1437BD4680BC70472800002004
:1045B000D34D621080B582B000AF78607B68002B6D
:1045C00001D1012341E07B6893F83D30DBB2002B41
:1045D00006D17B68002283F83C207868FEF704FB54
:1045E0007B68022283F83D207B681A687B6804336D
:1045F0001946104600F0E6FB7B68012283F846204E
:104600007B68012283F83E207B68012283F83F20EB
:104610007B68012283F840207B68012283F84120D7
:104620007B68012283F842207B68012283F84320C3
:104630007B68012283F844207B68012283F84520AF
:104640007B68012283F83D20002318460837BD46C9
:1046500080BD80B582B000AF78607B68002B01D14F
:10466000012341E07B6893F83D30DBB2002B06D19B
:104670007B68002283F83C20786800F039F87B687A
:10468000022283F83D207B681A687B680433194650
:10469000104600F097FB7B68012283F846207B6878
:1046A000012283F83E207B68012283F83F207B684B
:1046B000012283F840207B68012283F841207B6837
:1046C000012283F842207B68012283F843207B6823
:1046D000012283F844207B68012283F845207B680F
:1046E000012283F83D20002318460837BD4680BDCF
:1046F00080B483B000AF786000BF0C37BD4680BC8B
:10470000704780B586B000AF786039607B68002B59
:1047100001D1012393E07B6893F83D30DBB2002B9D
:1047200006D17B68002283F83C207868FEF7AAF95E
:104730007B68022283F83D207B681B689B687A684F
:10474000126823F4804323F0070393607B681A68A0
:104750007B6804331946104600F034FB7B681B6805
:104760009B687B617B681B689B693B617B681B68FE
:104770001B6AFB603B681B687A6913437B613B697A
:1047800023F4407323F003033B613B689A683B6862
:104790009B691B0213433A6913433B613B6923F452
:1047A000406323F00C033B613B6923F4704323F027
:1047B000F0033B613B68DA683B68DB691B0213432B
:1047C0003A6913433B613B681B691A013B681B6AEA
:1047D0001B0313433A6913433B61FB6823F0220335
:1047E000FB603B685A683B685B691B011343FA68CE
:1047F0001343FB607B681B687A699A607B681B685F
:104800003A699A617B681B68FA681A627B680122C0
:1048100083F846207B68012283F83E207B680122D2
:1048200083F83F207B68012283F842207B680122C5
:1048300083F843207B68012283F83D20002318463B
:104840001837BD4680BD80B582B000AF78607B6808
:104850001B681B6903F00203022B22D17B681B68D3
:10486000DB6803F00203022B1BD17B681B686FF02F
:1048700002021A617B6801221A777B681B689B69B8
:1048800003F00303002B03D0786800F080FA05E002
:10489000786800F073FA786800F082FA7B6800228A
:1048A0001A777B681B681B6903F00403042B22D171
:1048B0007B681B68DB6803F00403042B1BD17B6857
:1048C0001B686FF004021A617B6802221A777B680A
:1048D0001B689B6903F44073002B03D0786800F0D9
:1048E00056FA05E0786800F049FA786800F058FA5E
:1048F0007B6800221A777B681B681B6903F008033A
:10490000082B22D17B681B68DB6803F00803082BA7
:104910001BD17B681B686FF008021A617B68042258
:104920001A777B681B68DB6903F00303002B03D055
:10493000786800F02CFA05E0786800F01FFA7868D3
:1049400000F02EFA7B6800221A777B681B681B69CF
:1049500003F01003102B22D17B681B68DB6803F087
:104960001003102B1BD17B681B686FF010021A61BB
:104970007B6808221A777B681B68DB6903F4407345
:10498000002B03D0786800F002FA05E0786800F0A8
:10499000F5F9786800F004FA7B6800221A777B68E2
:1049A0001B681B6903F00103012B0ED17B681B6898
:1049B000DB6803F00103012B07D17B681B686FF0F4
:1049C00001021A61786800F0D0F97B681B681B69E6
:1049D00003F08003802B0ED17B681B68DB6803F03B
:1049E0008003802B07D17B681B686FF080021A61FF
:1049F000786800F0CEFC7B681B681B6903F04003FD
:104A0000402B0ED17B681B68DB6803F04003402B12
:104A100007D17B681B686FF040021A61786800F06C
:104A2000C8F97B681B681B6903F02003202B0ED19B
:104A30007B681B68DB6803F02003202B07D17B68B1
:104A40001B686FF020021A61786800F099FC00BFC3
:104A50000837BD4680BD000080B586B000AFF86065
:104A6000B9607A600023FB75FB6893F83C30012B3A
:104A700001D10223AEE0FB68012283F83C207B6871
:104A80000C2B00F29F8001A252F823F0C14A0008CB
:104A9000C54B0008C54B0008C54B0008014B00087A
:104AA000C54B0008C54B0008C54B0008434B000828
:104AB000C54B0008C54B0008C54B0008834B0008D8
:104AC000FB681B68B968184600F0DEF9FB681B68D4
:104AD0009A69FB681B6842F008029A61FB681B68D0
:104AE0009A69FB681B6822F004029A61FB681B68E4
:104AF0009969BB681A69FB681B680A439A6164E09C
:104B0000FB681B68B968184600F024FAFB681B684C
:104B10009A69FB681B6842F400629A61FB681B6833
:104B20009A69FB681B6822F480629A61FB681B68C3
:104B30009969BB681B691A02FB681B680A439A6182
:104B400043E0FB681B68B968184600F06DFAFB6823
:104B50001B68DA69FB681B6842F00802DA61FB68CF
:104B60001B68DA69FB681B6822F00402DA61FB68E3
:104B70001B68D969BB681A69FB681B680A43DA615C
:104B800023E0FB681B68B968184600F0B7FAFB68B9
:104B90001B68DA69FB681B6842F40062DA61FB6833
:104BA0001B68DA69FB681B6822F48062DA61FB68C3
:104BB0001B68D969BB681B691A02FB681B680A433A
:104BC000DA6102E00123FB7500BFFB68002283F875
:104BD0003C20FB7D18461837BD4680BD80B584B0AB
:104BE00000AF786039600023FB737B6893F83C303A
:104BF000012B01D10223B4E07B68012283F83C2021
:104C00007B68022283F83D207B681B689B68BB6041
:104C1000BB6823F07703BB60BB6823F47F43BB60B2
:104C20007B681B68BA689A603B681B68B3F5005FD5
:104C30003ED0B3F5005F00F28780B3F5805F00F0EF
:104C40008680B3F5805F7FD8702B1AD0702B7BD80D
:104C5000602B50D0602B77D8502B3CD0502B73D882
:104C6000402B58D0402B6FD8302B64D0302B6BD8D2
:104C7000202B60D0202B67D8002B5CD0102B5AD073
:104C800062E07B6818683B6899683B685A683B68D3
:104C9000DB6800F0F8FA7B681B689B68BB60BB6848
:104CA00043F07703BB607B681B68BA689A604FE08B
:104CB0007B6818683B6899683B685A683B68DB68A2
:104CC00000F0E1FA7B681B689A687B681B6842F415
:104CD00080429A603CE07B6818683B6859683B6892
:104CE000DB681A4600F058FA7B681B6850211846AA
:104CF00000F0AFFA2CE07B6818683B6859683B68A5
:104D0000DB681A4600F076FA7B681B68602118465B
:104D100000F09FFA1CE07B6818683B6859683B68A4
:104D2000DB681A4600F038FA7B681B684021184699
:104D300000F08FFA0CE07B681A683B681B68194624
:104D4000104600F086FA03E00123FB7300E000BF89
:104D50007B68012283F83D207B68002283F83C2099
:104D6000FB7B18461037BD4680BD80B483B000AFD2
:104D7000786000BF0C37BD4680BC704780B483B0FC
:104D800000AF786000BF0C37BD4680BC704780B470
:104D900083B000AF786000BF0C37BD4680BC704761
:104DA00080B483B000AF786000BF0C37BD4680BCD4
:104DB000704780B483B000AF786000BF0C37BD4649
:104DC00080BC704780B485B000AF786039607B6884
:104DD0001B68FB607B68294A93420BD07B68B3F168
:104DE000804F07D07B68264A934203D07B68254AD0
:104DF000934208D1FB6823F07003FB603B685B685B
:104E0000FA681343FB607B681C4A93420BD07B68B3
:104E1000B3F1804F07D07B68194A934203D07B6877
:104E2000184A934208D1FB6823F44073FB603B6847
:104E3000DB68FA681343FB60FB6823F080023B6881
:104E40005B691343FB607B68FA681A603B689A6889
:104E50007B68DA623B681A687B689A627B68074AFB
:104E6000934203D13B681A697B681A637B6801220D
:104E70005A6100BF1437BD4680BC7047002C01400A
:104E8000000400400008004080B487B000AF7860A4
:104E900039607B681B6A7B617B681B6A23F00102B7
:104EA0007B681A627B685B683B617B689B69FB601F
:104EB000FB6823F07003FB60FB6823F00303FB60D7
:104EC0003B681B68FA681343FB607B6923F00203AD
:104ED0007B613B689B687A6913437B617B681C4AF2
:104EE00093420CD17B6923F008037B613B68DB684C
:104EF0007A6913437B617B6923F004037B617B68E0
:104F0000134A934211D13B6923F480733B613B699F
:104F100023F400733B613B685B693A6913433B616F
:104F20003B689B693A6913433B617B683A695A6005
:104F30007B68FA689A613B685A687B685A637B6849
:104F40007A691A6200BF1C37BD4680BC704700BF3B
:104F5000002C014080B487B000AF786039607B6876
:104F60001B6A7B617B681B6A23F010027B681A62F4
:104F70007B685B683B617B689B69FB60FB6823F433
:104F8000E043FB60FB6823F44073FB603B681B68F5
:104F90001B02FA681343FB607B6923F020037B61EB
:104FA0003B689B681B017A6913437B617B681D4AE0
:104FB00093420DD17B6923F080037B613B68DB6802
:104FC0001B017A6913437B617B6923F040037B619A
:104FD0007B68144A934213D13B6923F480633B619D
:104FE0003B6923F400633B613B685B699B003A6962
:104FF00013433B613B689B699B003A6913433B61E8
:105000007B683A695A607B68FA689A613B685A68BB
:105010007B689A637B687A691A6200BF1C37BD4659
:1050200080BC7047002C014080B487B000AF78602E
:1050300039607B681B6A7B617B681B6A23F4807222
:105040007B681A627B685B683B617B68DB69FB603D
:10505000FB6823F07003FB60FB6823F00303FB6035
:105060003B681B68FA681343FB607B6923F4007399
:105070007B613B689B681B027A6913437B617B6899
:105080001D4A93420DD17B6923F400637B613B6829
:10509000DB681B027A6913437B617B6923F48063BD
:1050A0007B617B68144A934213D13B6923F480539C
:1050B0003B613B6923F400533B613B685B691B0127
:1050C0003A6913433B613B689B691B013A6913438F
:1050D0003B617B683A695A607B68FA68DA613B68D1
:1050E0005A687B68DA637B687A691A6200BF1C378A
:1050F000BD4680BC704700BF002C014080B487B023
:1051000000AF786039607B681B6A3B617B681B6A13
:1051100023F480527B681A627B685B687B617B68E2
:10512000DB69FB60FB6823F4E043FB60FB6823F46E
:105130004073FB603B681B681B02FA681343FB600B
:105140003B6923F400533B613B689B681B033A694E
:1051500013433B617B680F4A934209D17B6923F477
:1051600080437B613B685B699B017A6913437B6188
:105170007B687A695A607B68FA68DA613B685A68CA
:105180007B681A647B683A691A6200BF1C37BD46A7
:1051900080BC7047002C014080B487B000AFF8603D
:1051A000B9607A60FB681B6A7B61FB681B6A23F04D
:1051B0000102FB681A62FB689B693B613B6923F053
:1051C000F0033B617B681B013A6913433B617B69D8
:1051D00023F00A037B617A69BB6813437B61FB6838
:1051E0003A699A61FB687A691A6200BF1C37BD464A
:1051F00080BC704780B487B000AFF860B9607A6057
:10520000FB681B6A7B61FB681B6A23F01002FB686A
:105210001A62FB689B693B613B6923F470433B6105
:105220007B681B033A6913433B617B6923F0A0034E
:105230007B61BB681B017A6913437B61FB683A6938
:105240009A61FB687A691A6200BF1C37BD4680BC50
:10525000704780B485B000AF786039607B689B6828
:10526000FB60FB6823F07003FB603A68FB68134344
:1052700043F00703FB607B68FA689A6000BF14374D
:10528000BD4680BC704780B487B000AFF860B9609D
:105290007A603B60FB689B687B617B6923F47F439A
:1052A0007B613B681A027B681A43BB6813437A69C7
:1052B00013437B61FB687A699A6000BF1C37BD4667
:1052C00080BC704780B485B000AF786039607B687F
:1052D00093F83C30012B01D1022346E07B68012288
:1052E00083F83C207B68022283F83D207B681B68A2
:1052F0005B68FB607B681B689B68BB60FB6823F096
:105300007003FB603B681B68FA681343FB607B68B3
:105310001B68FA685A607B681B68164A93420ED075
:105320007B681B68B3F1804F09D07B681B68124A09
:10533000934204D07B681B68104A93420CD1BB682F
:1053400023F08003BB603B685B68BA681343BB60B3
:105350007B681B68BA689A607B68012283F83D20ED
:105360007B68002283F83C20002318461437BD4692
:1053700080BC7047002C0140000400400008004041
:1053800080B483B000AF786000BF0C37BD4680BCEE
:10539000704780B483B000AF786000BF0C37BD4663
:1053A00080BC7047014B1868704700BF3400002074
:1053B00070B500260C4D0D4C641BA410A64209D1FB
:1053C00001F0F0FC00260A4D0A4C641BA410A64212
:1053D00005D170BD55F8043B98470136EEE755F806
:1053E000043B98470136F2E758B6000858B6000863
:1053F00058B600085CB600080A44914200F1FF3339
:1054000000D1704710B511F8014B914203F8014FDC
:10541000F9D110BD884210B501EB020402D98442D3
:10542000234607D8431EA14208D011F8012B03F8E8
:10543000012FF8E7014602448A4200D110BD13F85B
:10544000014D02F8014DF7E703460244934200D1B3
:10545000704703F8011BF9E70CB430B5174B0C1E6D
:105460001D689DB008DA8B234FF0FF302B601DB014
:10547000BDE8304002B070474FF40273ADF814300D
:105480000CBF234604F1FF33049307934FF6FF73D9
:1054900002900690ADF81630284621AB209A02A95A
:1054A000019300F069F8431CBCBF8B232B60002CD8
:1054B000DDD00022029B1A70D9E700BF3400002023
:1054C0002DE9F0478E6882469E420C4690461F4664
:1054D00038D88A8912F4906F32D02568096901336F
:1054E000A5EB010965694B4405EB450505EBD57551
:1054F0006D109D4238BF1D46530531D5294600F039
:1055000047FB064650B90C234FF0FF30CAF8003075
:10551000A38943F04003A381BDE8F0874A4621698F
:10552000FFF76AFFA38923F4906343F08003A3810C
:1055300026614E4426603E466561A5EB0905A560DF
:10554000BE4200D93E46324641462068FFF762FF20
:10555000A36800209B1BA360236833442360DBE720
:105560002A4600F089FB06460028E1D15046216911
:1055700000F0A6FAC7E700002DE9F04F98468B89A6
:1055800007461B060D4614469DB00ED50B6963B940
:10559000402100F0FDFA2860286120B90C233B600F
:1055A0004FF0FF30D1E040236B61002309932023AB
:1055B0008DF8293030234FF00109CDF80C80DFF849
:1055C000A4818DF82A3023469A4613F8012B0AB19C
:1055D000252AF9D1BAEB040B0BD05B4622462946AB
:1055E0003846FFF76DFF013000F0AA80099A5A444F
:1055F00009929AF80030002B00F0A28000234FF0AF
:10560000FF32CDE905230AF1010A049307938DF8CF
:1056100053301A935446052214F8011B514800F0E8
:1056200041FA049AD8B9D00644BF20238DF85330EC
:10563000110744BF2B238DF853309AF800302A2BE2
:1056400015D0544600204FF00A0C079A214611F855
:10565000013B303B092B4ED9B0B1079214E0A0EBCF
:10566000080309FA03F31343A2460493D2E7039B0A
:10567000191D1B680391002BBBBF5B4242F0020265
:1056800007930793B8BF049223782E2B0CD163782D
:105690002A2B35D1039B02341A1D1B680392002B61
:1056A000B8BF4FF0FF330593DFF8BCA0032250468C
:1056B000217800F0F7F940B14023A0EB0A0003FA8B
:1056C00000F0049B01340343049314F8011B0622E9
:1056D00026488DF8281000F0E5F9002838D0244B32
:1056E0001BBB039B073323F0070308330393099B7A
:1056F0003344099367E70C4601200CFB0232A5E70F
:1057000000234FF00A0C194601340593204610F887
:10571000012B303A092A03D9002BC5D00591C3E7E4
:10572000044601230CFB0121F0E703AB00932A465A
:105730003846104B04A9AFF30080421C0646D6D170
:10574000AB895B063FF52CAF09981DB0BDE8F08F23
:1057500003AB00932A463846064B04A900F07CF8B8
:10576000EBE700BF46B400084CB4000850B4000892
:1057700000000000C15400082DE9F0471646994684
:105780008A680B6907469342B8BF1346336091F8A5
:1057900043200C46DDF820800AB1013333602368D2
:1057A000990642BF336802333360256815F0060559
:1057B00006D104F1190AE36832689B1AAB4228DC6F
:1057C00094F84320131E226818BF012392062DD49B
:1057D0004946384604F14302C047013020D02368CF
:1057E000E56803F00603042B18BF002532684FF06C
:1057F0000006A36808BFAD1A226908BF25EAE5754F
:105800009342C4BF9B1AED181A34B5421AD1002036
:1058100008E00123524649463846C047013003D1CB
:105820004FF0FF30BDE8F0870135C4E73020E118C4
:1058300081F843005A1C94F845102244023382F840
:105840004310C5E70123224649463846C047013088
:10585000E6D00136D9E700002DE9FF470F7E9146DB
:10586000782F80460C469A460C9D01F1430207D8DA
:10587000622F0AD8002F00F0D980582F00F0A480A2
:1058800004F1420584F842703AE0A7F16303152B56
:10589000F6D801A151F823F0F15800080559000885
:1058A0008158000881580008815800088158000874
:1058B00005590008815800088158000881580008DF
:1058C00081580008135A000835590008F559000896
:1058D0008158000881580008355A0008815800088E
:1058E000355900088158000881580008FD59000802
:1058F0002B681A1D1B682A6004F1420584F84230A7
:105900000123A4E020682968060601F104030AD5F2
:105910000E682B60002E03DA2D23764284F8433084
:105920000A235E4819E00E6810F0400F2B6018BF84
:1059300036B2EFE72B682068191D2960010601D5F2
:105940001E6802E04606FBD51E886F2F0CBF082399
:105950000A235248002184F843106568002DA8BF2F
:105960002168A560A4BF21F0040121600EB9002DBB
:105970004DD01546B6FBF3F103FB1167C75D05F883
:10598000017D3746BB420E46F4D9082B0BD1236864
:10599000DE0708D5236961689942DEBF302305F828
:1059A000013C05F1FF35521B22614B462146404622
:1059B000CDF800A003AAFFF7DFFE01304CD14FF075
:1059C000FF3004B0BDE8F087344881F8457029689D
:1059D000236851F8046B29601D0614D5DF0744BF06
:1059E00043F0200323601EB9236823F020032360C3
:1059F0001023AFE7236843F020032360782328486F
:105A000084F84530E3E7590648BFB6B2E6E71546E5
:105A1000BBE72B682668181D6169286035061B687E
:105A200001D5196002E07006FBD5198000231546E8
:105A30002361BAE72B6800211A1D2A601D6862687D
:105A4000284600F02FF808B1401B606063682361AE
:105A5000002384F84330A8E72A4649464046236994
:105A6000D0470130ABD023689B0713D4E068039B79
:105A70009842B8BF1846A4E701233246494640463B
:105A8000D04701309BD00135E36803995B1AAB42E4
:105A9000F2DCEBE7002504F11906F5E757B400083E
:105AA00068B40008034610B5C9B2024493421846D0
:105AB00001D1002003E0047801338C42F6D110BDFF
:105AC00038B50546002940D051F8043C0C1F002B86
:105AD000B8BFE41800F010F91C4A136833B96360CA
