:020000040800F2
:100000000050002069130008D1120008D712000820
:10001000DD120008E3120008E912000800000000E9
:10002000000000000000000000000000EF120008C7
:10003000FB1200080000000007130008131300085B
:10004000B1130008B1130008B1130008B113000880
:10005000B1130008B1130008B1130008B113000870
:10006000B1130008B1130008B1130008B113000860
:10007000B1130008B1130008B1130008B113000850
:10008000B1130008B1130008B1130008B113000840
:10009000B1130008B1130008B1130008B113000830
:1000A000B113000821130008B1130008B1130008B0
:1000B000B11300083513000849130008B1130008F4
:1000C000B1130008B1130008B1130008B113000800
:1000D000B1130008B1130008B1130008B1130008F0
:1000E000B1130008B1130008B113000800000000AC
:1000F0000000000000000000000000000000000000
:0C01000000000000000000005FF808F1A3
:10010C0010B5054C237833B9044B13B10448AFF345
:10011C0000800123237010BD1C0000200000000093
:10012C00D43C000808B5034B1BB103490348AFF39B
:10013C00008008BD0000000020000020D43C000816
:10014C0080B586B002AF01F02FF900F0B3F800F0E3
:10015C00B1FA00F023F900F079F900F003FA00F09D
:10016C0055FA00F0EDF800F08DFB012300930A2303
:10017C000A220521002000F0A8FD40F6B83001F05D
:10018C0075F90021002000F0E5FC012241494248AC
:10019C0000F076FD1E21002000F0DCFC01223D4920
:1001AC003E4800F06DFD00F031FC4FF47A7001F028
:1001BC005DF91E21002000F0F0FA40F6B83001F095
:1001CC0055F91E21002000F01EFB40F6B83001F05E
:1001DC004DF900F04EFB00F073FE0021232000F0DF
:1001EC00B9FC01222B492E4800F04AFD4FF4005176
:1001FC002C4801F009FC4FF480512B4801F004FC11
:10020C00C82001F033F90123FB603CE03B1D0A22BE
:10021C001946F86803F00CFD1E21002000F09AFC32
:10022C0001222249224800F02BFD00F0EFFBFB6875
:10023C00092B04DC1E21352000F08CFC14E0FB683B
:10024C00632B04DC1E212D2000F084FC0CE0FB68E9
:10025C00B3F57A7F04DA1E21252000F07BFC03E045
:10026C001E211E2000F076FC3B1D01220F49184672
:10027C0000F006FD00F0CAFB4FF4FA7001F0F6F83E
:10028C00FB680133FB60FB6842F210729342BDDDE8
:10029C00ACE700BF00000020EC3C0008F43C000878
:1002AC00FC3C000800100140000C0140080000203C
:1002BC00043D000880B590B000AF07F11803282268
:1002CC000021184603F0B6FC3B1D00221A605A6050
:1002DC009A60DA601A610123BB614FF48033FB61D1
:1002EC0000233B620123BB6202237B634FF4803308
:1002FC00BB634FF4E013FB6307F11803184602F0DD
:10030C0067F90346002B01D000F042FA0F237B6003
:10031C000223BB600023FB604FF480633B6100232E
:10032C007B613B1D0221184602F0D4FB0346002BD7
:10033C0001D000F02DFA00BF4037BD4680BD000053
:10034C0080B500AF124B134A1A60114B124A5A6017
:10035C000F4B00229A600E4B0022DA600C4B4FF4CC
:10036C0080421A610A4B00225A61094B00229A61A1
:10037C00074B0022DA61064B00221A62044801F096
:10038C005DFB0346002B01D000F002FA00BF80BDDC
:10039C003800002000580040801A060080B58CB050
:1003AC0000AF07F10C0324220021184603F042FC95
:1003BC003B1D00221A605A60224B234A1A60214BC3
:1003CC0000225A601F4B00229A601E4B4FF6FF72A0
:1003DC00DA601C4B00221A611A4B00225A61194B2D
:1003EC0080229A610323FB6000233B6101237B6124
:1003FC000023BB610A23FB6100233B6201237B6268
:10040C000023BB620023FB6207F10C0319460D4865
:10041C0002F081FD0346002B01D000F0B9F9002356
:10042C007B600023BB603B1D1946064803F054FB60
:10043C000346002B01D000F0ABF900BF3037BD46AE
:10044C0080BD00BF8C000020002C014080B58EB018
:10045C0000AF07F1280300221A605A609A60DA6034
:10046C0007F1200300221A605A603B1D00221A601B
:10047C005A609A60DA601A615A619A61384B4FF08F
:10048C0080421A60364B00225A60354B00229A602B
:10049C00334B4FF6FF72DA60314B00221A61304B4E
:1004AC0000229A612E4802F08FFC0346002B01D0EB
:1004BC0000F06EF94FF48053BB6207F12803194624
:1004CC00274802F095FF0346002B01D000F060F99D
:1004DC00234802F0C8FC0346002B01D000F058F969
:1004EC0000233B6200237B6207F1200319461C4862
:1004FC0003F0F2FA0346002B01D000F049F9602317
:10050C007B600023BB600023FB6000237B613B1DF1
:10051C0000221946124802F0A9FE0346002B01D016
:10052C0000F036F93B1D042219460D4802F09EFEE0
:10053C000346002B01D000F02BF93B1D0822194675
:10054C00074802F093FE0346002B01D000F020F97F
:10055C00034800F087FE00BF3837BD4680BD00BFA2
:10056C00D400002080B58CB000AF07F10C0324221E
:10057C000021184603F05EFB3B1D00221A605A60F6
:10058C00204B214A1A601F4B00225A601D4B00223F
:10059C009A601C4B4FF6FF72DA601A4B00221A61FC
:1005AC00184B80229A610323FB6000233B610123DB
:1005BC007B610023BB610A23FB6100233B620123A7
:1005CC007B620023BB620023FB6207F10C0319461C
:1005DC000C4802F0A0FC0346002B01D000F0D8F828
:1005EC0000237B600023BB603B1D1946054803F0CC
:1005FC0073FA0346002B01D000F0CAF800BF303765
:10060C00BD4680BD1C0100200004004080B58CB0AC
:10061C0000AF07F10C0324220021184603F00AFB5B
:10062C003B1D00221A605A60204B214A1A601F4B56
:10063C0000225A601D4B00229A601C4B4FF6FF7231
:10064C00DA601A4B00221A61184B80229A6103233C
:10065C00FB6000233B6101237B610023BB610A2308
:10066C00FB6100233B6201237B620023BB620023FE
:10067C00FB6207F10C0319460C4802F04CFC0346D4
:10068C00002B01D000F084F800237B600023BB60BA
:10069C003B1D1946054803F01FFA0346002B01D0F9
:1006AC0000F076F800BF3037BD4680BD64010020F5
:1006BC000008004080B588B000AF07F1100300229D
:1006CC001A605A609A60DA602E4B9B692D4A43F08F
:1006DC00100393612B4B9B6903F01003FB60FB68C9
:1006EC00284B9B69274A43F020039361254B9B6958
:1006FC0003F02003BB60BB68224B9B69214A43F08B
:10070C00040393611F4B9B6903F004037B607B68BC
:10071C001C4B9B691B4A43F008039361194B9B6963
:10072C0003F008033B603B6800224FF4005116486D
:10073C0001F052F900224FF48051144801F04CF9A9
:10074C004FF400533B6101237B610023BB61022307
:10075C00FB6107F1100319460B4800F0B9FF4FF489
:10076C0080533B6101237B610023BB610223FB614E
:10077C0007F110031946054800F0AAFF00BF203707
:10078C00BD4680BD0010024000100140000C01402D
:10079C0080B400AF72B600BFFEE780B582B000AF88
:1007AC0003460A46FB711346BB71262200217820B2
:1007BC0000F00AFC00220021782000F005FCFB79F7
:1007CC001A460021782000F0FFFB0022002178203F
:1007DC0000F0FAFBBB791A460021782000F0F4FBFC
:1007EC0000220021782000F0EFFBFF22002178206E
:1007FC0000F0EAFB2F220021782000F0E5FB00BF7F
:10080C000837BD4680BD80B582B000AF03460A46AE
:10081C00FB711346BB7127220021782000F0D4FB1A
:10082C0000220021782000F0CFFBFB791A46002132
:10083C00782000F0C9FB00220021782000F0C4FBD6
:10084C00BB791A460021782000F0BEFB0022002163
:10085C00782000F0B9FBFF220021782000F0B4FBD7
:10086C002F220021782000F0AFFB00BF0837BD46D7
:10087C0080BD80B500AF2E220021782000F0A4FBB3
:10088C0000BF80BD80B582B000AF00F023FB44F602
:10089C002063012278215B4801F012FB0346002BF8
:1008AC0001D00023A9E040F6C4137B6002E07B6812
:1008BC00013B7B607B68002BF9D1AE2200217820B4
:1008CC0000F082FB20220021782000F07DFB10221A
:1008DC000021782000F078FBB0220021782000F075
:1008EC0073FBC8220021782000F06EFB002200214F
:1008FC00782000F069FB10220021782000F064FBC6
:10090C0040220021782000F05FFB8122002178201A
:10091C0000F05AFBFF220021782000F055FBA122A9
:10092C000021782000F050FBA6220021782000F056
:10093C004BFBA8220021782000F046FB3F2200212F
:10094C00782000F041FBA4220021782000F03CFB31
:10095C00D3220021782000F037FB002200217820E0
:10096C0000F032FBD5220021782000F02DFBF02284
:10097C000021782000F028FBD9220021782000F0FB
:10098C0023FB22220021782000F01EFBDA2200211A
:10099C00782000F019FB12220021782000F014FBC3
:1009AC00DB220021782000F00FFB20220021782090
:1009BC0000F00AFB8D220021782000F005FB1422A8
:1009CC000021782000F000FBAF220021782000F0FD
:1009DC00FBFA2E220021782000F0F6FA002000F01D
:1009EC0043F800F013F8084B00221A80064B002243
:1009FC005A80054B01225A71012318460837BD460F
:100A0C0080BD00BF38000020AC05002080B582B04E
:100A1C0000AF0023FB711DE0FB79503BDBB21A46A3
:100A2C000021782000F0D0FA00220021782000F07C
:100A3C00CBFA10220021782000F0C6FAFB79DB01FA
:100A4C00084A1A4480234021782000F057FAFB7999
:100A5C000133FB71FB79072BDED900BF00BF0837D0
:100A6C00BD4680BDAC01002080B582B000AF03460E
:100A7C00FB71FB79002B01D1002300E0FF234FF425
:100A8C0080621946034803F0D5F800BF0837BD460D
:100A9C0080BD00BFAC01002080B483B000AF034622
:100AAC00FB800B46BB801346FB70FB887F2B48D822
:100ABC00BB883F2B45D8254B1B79002B06D0FB78E8
:100ACC00002B0CBF01230023DBB2FB70FB78012B46
:100ADC001AD1FA88BB88DB0898B20346DB011344B1
:100AEC001B4AD35C5AB2BB8803F00703012101FAFD
:100AFC0003F35BB2134359B2FA880346DB01134488
:100B0C00C9B2134AD1541DE0FA88BB88DB0898B2ED
:100B1C000346DB0113440E4AD35C5AB2BB8803F084
:100B2C000703012101FA03F35BB2DB435BB2134011
:100B3C0059B2FA880346DB011344C9B2044AD154B2
:100B4C0000E000BF0C37BD4680BC7047AC050020F0
:100B5C00AC01002080B483B000AF03460A46FB8092
:100B6C001346BB80054AFB881380044ABB8853801C
:100B7C0000BF0C37BD4680BC704700BFAC050020E1
:100B8C0080B586B000AF03463960FB711346BB716C
:100B9C003A4B1B881A463B681B7813447F2B07DCA7
:100BAC00364B5B881A463B685B7813443F2B01DD60
:100BBC0000235EE000237B614BE03B685A68FB79C5
:100BCC00203B3968497801FB03F319467B690B44D8
:100BDC005B0013441B88FB6000233B6130E0FA6828
:100BEC003B6902FA03F303F40043002B10D0234BB0
:100BFC001A883B699BB2134498B2204B5A887B6984
:100C0C009BB213449BB2BA791946FFF745FF14E027
:100C1C001A4B1A883B699BB2134498B2174B5A88EB
:100C2C007B699BB2134499B2BB79002B0CBF012397
:100C3C000023DBB21A46FFF72FFF3B6901333B6100
:100C4C003B681B781A463B699342C8D37B690133D6
:100C5C007B613B685B781A467B699342ADD3074B4B
:100C6C001A883B681B789BB213449AB2034B1A80C8
:100C7C00FB7918461837BD4680BD00BFAC05002077
:100C8C0080B584B000AFF860B9601346FB7112E018
:100C9C00FB681B78FA79B9681846FFF771FF0346B1
:100CAC001A46FB681B789A4202D0FB681B7808E056
:100CBC00FB680133FB60FB681B78002BE8D1FB68F9
:100CCC001B7818461037BD4680BD90B587B000AF75
:100CDC000446084611461A462346FB800346BB8051
:100CEC000B467B8013463B80FB887F2B01D97F23EF
:100CFC00FB807B887F2B01D97F237B80BB883F2B9C
:100D0C0001D93F23BB803B883F2B01D93F233B803C
:100D1C00FA887B889A4205D27A88FB88D31A9BB2D0
:100D2C001BB204E0FA887B88D31A9BB21BB27B827D
:100D3C00BA883B889A4205D23A88BB88D31A9BB2B0
:100D4C001BB204E0BA883B88D31A9BB21BB23B821D
:100D5C00FA887B889A4201D2012301E04FF0FF33DD
:100D6C00FB81BA883B889A4201D2012301E04FF003
:100D7C00FF33BB81B7F91220B7F910309A4206DD68
:100D8C00B7F91230DA0F13445B101BB206E0B7F957
:100D9C001030DA0F13445B105B421BB2FB82B7F9C5
:100DAC001230002B29D13A88BB889A4205D23B8855
:100DBC003B81BB883B803B89BB807A88FB889A420D
:100DCC0005D27B883B81FB887B803B89FB80BB8881
:100DDC00BB820CE0B98A97F82820FB881846FFF7ED
:100DEC005BFEB7F914309BB201339BB2BB82B7F9EF
:100DFC0014203B889A42EDDD5FE0B7F91030002BF0
:100E0C0029D13A88BB889A4205D23B883B81BB8862
:100E1C003B803B89BB807A88FB889A4205D27B88D1
:100E2C003B81FB887B803B89FB80FB88BB820CE091
:100E3C00BB8A97F82820B9881846FFF72DFEB7F91A
:100E4C0014309BB201339BB2BB82B7F914207B8860
:100E5C009A42EDDD31E097F82820B988FB881846D6
:100E6C00FFF71AFEFA887B889A4203D1BA883B882E
:100E7C009A4221D0FB8A7B81B7F90A20B7F912304C
:100E8C005B429A4208DDFA8A3B8AD31A9BB2FB82F8
:100E9C00FA89FB881344FB80B7F90A20B7F91030A4
:100EAC009A42D8DAFA8A7B8A13449BB2FB82BA89BB
:100EBC00BB881344BB80CEE700BF1C37BD4690BD3A
:100ECC0080B500AF0020FFF7CFFDFFF79FFD00BFFF
:100EDC0080BD000080B483B000AF074B7B6002E0A4
:100EEC007B68013B7B607B68002BF9D100BF00BFA6
:100EFC000C37BD4680BC704790D0030090B5C7B08E
:100F0C0002AF0446084607F58871A1F588710A609E
:100F1C00194607F58873A3F2091322461A7007F5D0
:100F2C008873A3F5857302461A7007F58873A3F5C9
:100F3C0086730A461A8007F58873A3F5827307F542
:100F4C008872A2F5857212781A70002387F80F3117
:100F5C0015E097F80F3107F58872A2F588721268C0
:100F6C001A4497F80F310133117807F58872A2F5FE
:100F7C008272D15497F80F31013387F80F3197F8FB
:100F8C000F319BB207F58872A2F5867212889A42CD
:100F9C00DFD807F58873A3F209131B7899B207F50C
:100FAC008873A3F586731B8801339BB207F10C027F
:100FBC000A200090034800F085FE00BF07F58A77F1
:100FCC00BD4690BD3800002080B586B002AF034608
:100FDC00FB710B46BB7113467B71BB793B737B7901
:100FEC007B73FB7999B207F10C020A23009302235D
:100FFC00034800F067FE00BF1037BD4680BD00BF40
:10100C003800002080B483B000AF0E4B9B690D4AB2
:10101C0043F0010393610B4B9B6903F001037B606D
:10102C007B68084BDB69074A43F08053D361054B5F
:10103C00DB6903F080533B603B6800BF0C37BD4657
:10104C0080BC70470010024080B588B000AF78605B
:10105C0007F1100300221A605A609A60DA607B680C
:10106C001B68164A934224D1154B9B69144A43F0D2
:10107C0008039361124B9B6903F00803FB60FB6848
:10108C004FF440633B6112237B610323FB6107F147
:10109C00100319460B4800F01BFB094BDB69084A8F
:1010AC0043F48003D361064BDB6903F48003BB601C
:1010BC00BB6800BF2037BD4680BD00BF0058004054
:1010CC0000100240000C014080B58CB000AF78607D
:1010DC0007F1200300221A605A609A60DA607B687C
:1010EC001B684C4A93422DD14B4B9B694A4A43F4A3
:1010FC0000639361484B9B6903F40063FB61FB69DC
:10110C00454B9B69444A43F004039361424B9B69F2
:10111C0003F00403BB61BB694FF440733B620023D3
:10112C007B620023BB6207F1200319463B4800F0A9
:10113C00CFFA00220021192000F093FA192000F0B8
:10114C00ACFA62E07B681B68354A93422CD1324B77
:10115C00DB69314A43F00203D3612F4BDB6903F0A7
:10116C0002037B617B692C4B9B692B4A43F0040384
:10117C009361294B9B6903F004033B613B69C023DA
:10118C003B6200237B620023BB6207F120031946FC
:10119C00224800F09DFA002200211D2000F061FA87
:1011AC001D2000F07AFA30E07B681B681D4A9342E0
:1011BC002BD1194BDB69184A43F00403D361164B4E
:1011CC00DB6903F00403FB60FB68134B9B69124A59
:1011DC0043F008039361104B9B6903F00803BB6059
:1011EC00BB68C0233B6200237B620023BB6207F118
:1011FC00200319460C4800F06BFA002200211E2037
:10120C0000F02FFA1E2000F048FA00BF3037BD4620
:10121C0080BD00BF002C01400010024000080140BE
:10122C000004004000080040000C014080B485B070
:10123C0000AF78607B681B68B3F1804F0BD1084B13
:10124C00DB69074A43F00103D361054BDB6903F00B
:10125C000103FB60FB6800BF1437BD4680BC7047C0
:10126C000010024080B588B000AF786007F1100321
:10127C0000221A605A609A60DA607B681B68B3F1CE
:10128C00804F17D10D4B9B690C4A43F004039361BB
:10129C000A4B9B6903F00403FB60FB6807233B616B
:1012AC0002237B610223FB6107F1100319460448FA
:1012BC0000F00EFA00BF2037BD4680BD0010024082
:1012CC000008014080B400AFFEE780B400AFFEE739
:1012DC0080B400AFFEE780B400AFFEE780B400AF8F
:1012EC00FEE780B400AF00BFBD4680BC704780B441
:1012FC0000AF00BFBD4680BC704780B400AF00BFDC
:10130C00BD4680BC704780B500AF00F093F800BFBD
:10131C0080BD000080B500AF024801F09EFE00BF0A
:10132C0080BD00BF8C00002080B500AF024801F0EA
:10133C0094FE00BF80BD00BF1C01002080B500AF33
:10134C00024801F08AFE00BF80BD00BF640100208E
:10135C0080B400AF00BFBD4680BC7047FFF7F8FFFC
:10136C000B480C490C4A002302E0D458C4500433F7
:10137C00C4188C42F9D3094A094C002301E01360CC
:10138C000432A242FBD302F017FCFEF7D9FE7047E1
:10139C00000000201C000020145E00081C0000202F
:1013AC00B8050020FEE7000080B500AF084B1B68B5
:1013BC00074A43F010031360032000F047F90F2095
:1013CC0000F008F8FFF71EFE0023184680BD00BF92
:1013DC000020024080B582B000AF7860124B1A68D2
:1013EC00124B1B7819464FF47A73B3FBF1F3B2FB33
:1013FC00F3F3184600F05FF90346002B01D00123EC
:10140C000EE07B680F2B0AD8002279684FF0FF3072
:10141C0000F027F9064A7B681360002300E00123E3
:10142C0018460837BD4680BD10000020180000206B
:10143C001400002080B400AF054B1B781A46054BF6
:10144C001B681344034A136000BFBD4680BC704741
:10145C0018000020B405002080B400AF024B1B68BC
:10146C001846BD4680BC7047B405002080B584B0DA
:10147C0000AF7860FFF7F0FFB8607B68FB60FB683B
:10148C00B3F1FF3F05D00A4B1B781A46FB68134497
:10149C00FB6000BFFFF7E0FF0246BB68D31AFA6897
:1014AC009A42F7D800BF00BF1037BD4680BD00BFC1
:1014BC001800002080B485B000AF78607B6803F022
:1014CC000703FB600C4BDB68BB60BA684FF6FF038D
:1014DC001340BB60FB681A02BB68134343F0BF6345
:1014EC0043F40033BB60044ABB68D36000BF1437BD
:1014FC00BD4680BC704700BF00ED00E080B400AF7B
:10150C00044BDB681B0A03F007031846BD4680BC7E
:10151C00704700BF00ED00E080B483B000AF03461D
:10152C00FB7197F90730002B0BDBFB7903F01F02E3
:10153C00064997F907305B09012000FA02F241F8DD
:10154C00232000BF0C37BD4680BC704700E100E093
:10155C0080B483B000AF03463960FB7197F9073054
:10156C00002B0ADB3B68DAB20C4997F90730120101
:10157C00D2B20B4483F800230AE03B68DAB2084984
:10158C00FB7903F00F03043B1201D2B20B441A7621
:10159C0000BF0C37BD4680BC704700BF00E100E0C7
:1015AC0000ED00E080B489B000AFF860B9607A60FB
:1015BC00FB6803F00703FB61FB69C3F10703042B12
:1015CC0028BF0423BB61FB690433062B02D9FB69DA
:1015DC00033B00E000237B614FF0FF32BB6902FA52
:1015EC0003F3DA43BB681A407B699A404FF0FF3132
:1015FC007B6901FA03F3D9437B680B40134318460C
:10160C002437BD4680BC704780B582B000AF78608F
:10161C007B68013BB3F1807F01D301230FE00A4AC1
:10162C007B68013B53600F214FF0FF30FFF790FFB9
:10163C00054B00229A60044B07221A6000231846BF
:10164C000837BD4680BD00BF10E000E080B582B019
:10165C0000AF78607868FFF72DFF00BF0837BD46F4
:10166C0080BD80B586B000AF0346B9607A60FB736D
:10167C0000237B61FFF742FF78617A68B96878696B
:10168C00FFF790FF024697F90F3011461846FFF707
:10169C005FFF00BF1837BD4680BD80B582B000AF7C
:1016AC000346FB7197F907301846FFF735FF00BF6B
:1016BC000837BD4680BD80B582B000AF78607868D1
:1016CC00FFF7A2FF034618460837BD4680BD000051
:1016DC0080B48BB000AF7860396000237B6200234C
:1016EC003B6269E101227B6A02FA03F3FB613B680E
:1016FC001B68FA691340BB61BA69FB699A4240F0F6
:10170C0058813B685B689A4A93425ED0984A9342F0
:10171C0075D8984A934258D0964A93426FD8964AB5
:10172C00934252D0944A934269D8944A93424CD0F3
:10173C00924A934263D8924A934246D0904A93423B
:10174C005DD8122B2AD8122B59D801A252F823F0AB
:10175C00D7170008B1170008C317000805180008B0
:10176C000B1800080B1800080B1800080B180008C1
:10177C000B1800080B1800080B1800080B180008B1
:10178C000B1800080B1800080B1800080B180008A1
:10179C000B180008B9170008CD170008794A9342B6
:1017AC0013D02CE03B68DB683B6229E03B68DB68CC
:1017BC0004333B6224E03B68DB6808333B621FE088
:1017CC003B68DB680C333B621AE03B689B68002B80
:1017DC0002D104233B6213E03B689B68012B05D1CB
:1017EC0008233B627B68FA691A6109E008233B62B3
:1017FC007B68FA695A6103E000233B6200E000BF9A
:10180C00BB69FF2B01D87B6801E07B6804337B61EB
:10181C00BB69FF2B02D87B6A9B0002E07B6A083B0A
:10182C009B003B617B691A680F213B6901FA03F34A
:10183C00DB431A40396A3B6901FA03F31A437B69AB
:10184C001A603B685B6803F08053002B00F0B1809A
:10185C004D4B9B694C4A43F0010393614A4B9B6986
:10186C0003F00103BB60BB68484A7B6A9B080233E8
:10187C0052F82330FB607B6A03F003039B000F22BA
:10188C0002FA03F3DB43FA681340FB607B68404ABF
:10189C00934213D07B683F4A93420DD07B683E4AFB
:1018AC00934207D07B683D4A934201D1032306E063
:1018BC00042304E0022302E0012300E000237A6AFF
:1018CC0002F0030292009340FA681343FB602F4925
:1018DC007B6A9B080233FA6841F823203B685B68FB
:1018EC0003F48013002B06D02D4B9A682C49BB694E
:1018FC0013438B6006E02A4B9A68BB69DB4328498B
:10190C0013408B603B685B6803F40013002B06D01C
:10191C00234BDA682249BB691343CB6006E0204BAA
:10192C00DA68BB69DB431E491340CB603B685B68DC
:10193C0003F40033002B06D0194B5A681849BB69C5
:10194C0013434B6006E0164B5A68BB69DB431449E2
:10195C0013404B603B685B6803F48033002B21D051
:10196C000F4B1A680E49BB6913430B6021E000BF93
:10197C000000321000003110000022100000211075
:10198C000000121000001110001002400000014075
:10199C0000080140000C01400010014000140140FF
:1019AC00000401400B4B1A68BB69DB430949134027
:1019BC000B607B6A01337B623B681A687B6A22FA94
:1019CC0003F3002B7FF48EAE00BF00BF2C37BD4657
:1019DC0080BC70470004014080B483B000AF7860D5
:1019EC000B467B8013467B707B78002B03D07A8868
:1019FC007B681A6103E07B881A047B681A6100BF5C
:101A0C000C37BD4680BC704780B485B000AF7860A1
:101A1C000B467B807B68DB68FB607A88FB68134035
:101A2C001A04FB68D9437B880B401A437B681A6104
:101A3C0000BF1437BD4680BC7047000080B584B031
:101A4C0000AF78607B68002B01D101232BE17B6810
:101A5C0093F83D30DBB2002B06D17B68002283F873
:101A6C003C207868FFF7F0FA7B68242283F83D204D
:101A7C007B681B681A687B681B6822F001021A607D
:101A8C007B681B681A687B681B6842F400421A600A
:101A9C007B681B681A687B681B6822F400421A601A
:101AAC0001F060F9F8607B685B68814A934207D863
:101ABC00FB68804A934294BF01230023DBB206E00B
:101ACC00FB687D4A934294BF01230023DBB2002BB9
:101ADC0001D00123E7E0FB68784AA2FB03239B0CAF
:101AEC00BB607B681B685B6823F03F017B681B68ED
:101AFC00BA680A435A607B681B681B6A23F03F0173
:101B0C007B685B686A4A934202D8BB68013309E080
:101B1C00BB684FF4967202FB03F3694AA2FB0323E2
:101B2C009B0901337A6812680B4313627B681B684C
:101B3C00DB6923F44F4222F0FF027B685B685C494F
:101B4C008B4219D8FB68591E7B685B685B00B1FB44
:101B5C00F3F3591C40F6FC730B40002B0AD0FB68C6
:101B6C00591E7B685B685B00B1FBF3F30133C3F375
:101B7C000B0351E004234FE07B689B68002B11D1D1
:101B8C00FB68581E7B6859680B465B000B44B0FB26
:101B9C00F3F30133C3F30B03002B0CBF012300231E
:101BAC00DBB212E0FB68581E7B6859680B469B0041
:101BBC000B4499000B44B0FBF3F30133C3F30B0359
:101BCC00002B0CBF01230023DBB2002B01D001231F
:101BDC0022E07B689B68002B0ED1FB68581E7B684B
:101BEC0059680B465B000B44B0FBF3F30133C3F3B2
:101BFC000B0343F400430FE0FB68581E7B685968E5
:101C0C000B469B000B4499000B44B0FBF3F30133E0
:101C1C00C3F30B0343F44043796809681343CB6166
:101C2C007B681B681B6823F0C0017B68DA697B68E2
:101C3C001B6A1A437B681B680A431A607B681B6823
:101C4C009B6823F4034323F0FF037A6811697A68D5
:101C5C00D26811437A6812680B4393607B681B68E7
:101C6C00DB6823F0FF017B685A697B689B691A4328
:101C7C007B681B680A43DA607B681B681A687B68A0
:101C8C001B6842F001021A607B6800221A647B68B0
:101C9C00202283F83D207B6800221A637B68002297
:101CAC0083F83E20002318461037BD4680BD00BF88
:101CBC00A08601007F841E00FF083D0083DE1B43CD
:101CCC00D34D621080B588B002AFF8607A601A46C6
:101CDC000B467B8113463B81FFF7BEFB7861FB68AB
:101CEC0093F83D30DBB2202B40F0E0807B69009311
:101CFC00192301227049F86800F092FA0346002B70
:101D0C0001D00223D3E0FB6893F83C30012B01D1C6
:101D1C000223CCE0FB68012283F83C20FB681B68A3
:101D2C001B6803F00103012B07D0FB681B681A68C2
:101D3C00FB681B6842F001021A60FB681B681A689A
:101D4C00FB681B6822F400621A60FB68212283F88E
:101D5C003D20FB68102283F83E20FB6800221A64A9
:101D6C00FB687A685A62FB683A895A85FB685B8D16
:101D7C009AB2FB681A85FB68504ADA6279897B69EA
:101D8C003A6AF86800F0CAF90346002B01D0012327
:101D9C008DE000233B61FB681B685B693B61FB6862
:101DAC001B689B693B613B6966E07A69396AF86834
:101DBC0000F050FB0346002B0DD0FB681B6C042B72
:101DCC0007D1FB681B681A68FB681B6842F4007239
:101DDC001A6001236BE0FB685B6A1A78FB681B686E
:101DEC001A61FB685B6A5A1CFB685A62FB685B8D64
:101DFC009BB2013B9AB2FB685A85FB681B8D013B79
:101E0C009AB2FB681A85FB681B685B6903F00403D4
:101E1C00042B1BD1FB681B8D002B17D0FB685B6A56
:101E2C001A78FB681B681A61FB685B6A5A1CFB68B2
:101E3C005A62FB685B8D9BB2013B9AB2FB685A8578
:101E4C00FB681B8D013B9AB2FB681A857A69396A6B
:101E5C00F86800F047FB0346002B0DD0FB681B6CA9
:101E6C00042B07D1FB681B681A68FB681B6842F4DB
:101E7C0000721A6001231AE0FB681B8D002B94D1B1
:101E8C00FB681B681A68FB681B6842F400721A60D6
:101E9C00FB68202283F83D20FB68002283F83E205B
:101EAC00FB68002283F83C20002300E00223184644
:101EBC001837BD4680BD00BF020010000000FFFFB8
:101ECC0080B58AB002AFF8607A603B600B467B81CC
:101EDC00FFF7C2FAF8610023BB61FB6893F83D3051
:101EEC00DBB2202B40F01181FB69009319230122F6
:101EFC008849F86800F094F90346002B01D00223BE
:101F0C0004E1FB6893F83C30012B01D10223FDE086
:101F1C00FB68012283F83C20FB681B681B6803F0FC
:101F2C000103012B07D0FB681B681A68FB681B6850
:101F3C0042F001021A60FB681B681A68FB681B6898
:101F4C0022F400621A60FB68242283F83D20FB68AF
:101F5C0000221A64FB68704ADA62FB681B681A6814
:101F6C00FB681B6842F480721A60FB6900933B6843
:101F7C0000224FF00111F86800F052F90346002BD3
:101F8C000DD0FB681B681B6803F48073B3F5807F6E
:101F9C0003D1FB684FF400721A640323B6E07B890B
:101FAC00DBB21A46FB681B6802F0FE021A61FFF7EF
:101FBC0053FAF861FB681B685B6903F00203022BA0
:101FCC000CBF01230023DBB2FB75FB681B685B694C
:101FDC0003F48063B3F5806F0CBF01230023DBB2E5
:101FEC00BB7525E0FFF738FA0246FB69D31A3A684D
:101FFC009A4202D33B68002B03D1FB68A02283F8E2
:10200C003D20FB681B685B6903F00203022B0CBFCD
:10201C0001230023DBB2FB75FB681B685B6903F4CF
:10202C008063B3F5806F0CBF01230023DBB2BB755B
:10203C00FB6893F83D30DBB2A02B05D0FB7D002B69
:10204C0002D1BB7D002BCDD0FB68202283F83D2034
:10205C00FB681B685B6903F00203022B29D1FB6848
:10206C001B681A68FB681B6842F400721A60002334
:10207C003B61FB681B685B693B61FB681B689B6988
:10208C003B613B69FB690093192301222149F868E4
:10209C0000F0C6F80346002B01D0012336E0FB68A4
:1020AC00202283F83D20FB68002283F83C2000238B
:1020BC002CE0FB681B681A68FB681B6842F4007212
:1020CC001A60FB681B686FF480625A61FB690093AD
:1020DC00192301220F49F86800F0A2F80346002BDF
:1020EC0001D0012312E0BB690133BB61BA697B6883
:1020FC009A42FFF432AFFB68202283F83D20FB6844
:10210C00002283F83C20012300E0022318462037EC
:10211C00BD4680BD020010000000FFFF80B588B0F6
:10212C0002AFF8607A603B600B467B81FB68DB6A30
:10213C007B617B69082B06D07B69012B03D07B6903
:10214C0013F5803F08D1FB681B681A68FB681B6895
:10215C0042F480721A600BE0FB681B6B122B07D1E8
:10216C00FB681B681A68FB681B6842F480721A6073
:10217C003B6800937B6800224FF00111F86800F077
:10218C004FF80346002B0DD0FB681B681B6803F44B
:10219C008073B3F5807F03D1FB684FF400721A642F
:1021AC00032335E0FB681B69B3F5804F08D17B89AD
:1021BC00DBB21A46FB681B6802F0FE021A611BE0D8
:1021CC007B89DB11DBB203F00603DBB263F00F0398
:1021DC00DAB2FB681B681A613B687A680E49F868CA
:1021EC0000F098F80346002B01D0012310E07B8906
:1021FC00DAB2FB681B681A613B687A680749F868B1
:10220C0000F088F80346002B01D0012300E00023E6
:10221C0018461837BD4680BD0800010002000100B9
:10222C0080B584B000AFF860B9603B601346FB71B9
:10223C0048E03B68B3F1FF3F44D0FFF70DF902468D
:10224C00BB69D31A3A689A4202D33B68002B39D146
:10225C00BB681B0CDBB2012B0DD1FB681B685B69E7
:10226C00DA43BB6813409BB2002B0CBF0123002345
:10227C00DBB21A460CE0FB681B689B69DA43BB684F
:10228C0013409BB2002B0CBF01230023DBB21A4678
:10229C00FB799A4216D1FB6800221A63FB68202254
:1022AC0083F83D20FB68002283F83E20FB681B6C02
:1022BC0043F02002FB681A64FB68002283F83C2080
:1022CC00012323E0BB681B0CDBB2012B0DD1FB6897
:1022DC001B685B69DA43BB6813409BB2002B0CBFD5
:1022EC0001230023DBB21A460CE0FB681B689B69D8
:1022FC00DA43BB6813409BB2002B0CBF01230023B5
:10230C00DBB21A46FB799A4293D000231846103759
:10231C00BD4680BD80B584B000AFF860B9607A600E
:10232C003B6071E0FB681B685B6903F48063B3F589
:10233C00806F23D1FB681B681A68FB681B6842F42A
:10234C0000721A60FB681B686FF480625A61FB684C
:10235C0000221A63FB68202283F83D20FB680022D0
:10236C0083F83E20FB681B6C43F00402FB681A6484
:10237C00FB68002283F83C20012367E07B68B3F103
:10238C00FF3F41D0FFF768F802463B68D31A7A68E2
:10239C009A4202D37B68002B36D1BB681B0CDBB294
:1023AC00012B0CD1FB681B685B69DA43BB681340DB
:1023BC009BB2002B14BF01230023DBB20BE0FB68A4
:1023CC001B689B69DA43BB6813409BB2002B14BF9C
:1023DC0001230023DBB2002B16D0FB6800221A630A
:1023EC00FB68202283F83D20FB68002283F83E2006
:1023FC00FB681B6C43F02002FB681A64FB6800222C
:10240C0083F83C20012321E0BB681B0CDBB2012BC1
:10241C000CD1FB681B685B69DA43BB6813409BB249
:10242C00002B14BF01230023DBB20BE0FB681B68FD
:10243C009B69DA43BB6813409BB2002B14BF01238A
:10244C000023DBB2002B7FF46DAF0023184610374E
:10245C00BD4680BD80B584B000AFF860B9607A60CD
:10246C0034E0F86800F086F80346002B01D0012315
:10247C0034E0BB68B3F1FF3F28D0FEF7EDFF024616
:10248C007B68D31ABA689A4202D3BB68002B1DD161
:10249C00FB681B685B6903F08003802B16D0FB681C
:1024AC0000221A63FB68202283F83D20FB6800227F
:1024BC0083F83E20FB681B6C43F02002FB681A6417
:1024CC00FB68002283F83C20012307E0FB681B68B3
:1024DC005B6903F08003802BC3D1002318461037AF
:1024EC00BD4680BD80B584B000AFF860B9607A603D
:1024FC0034E0F86800F03EF80346002B01D00123CD
:10250C0034E0BB68B3F1FF3F28D0FEF7A5FF0246CD
:10251C007B68D31ABA689A4202D3BB68002B1DD1D0
:10252C00FB681B685B6903F00403042B16D0FB6883
:10253C0000221A63FB68202283F83D20FB680022EE
:10254C0083F83E20FB681B6C43F02002FB681A6486
:10255C00FB68002283F83C20012307E0FB681B6822
:10256C005B6903F00403042BC3D100231846103716
:10257C00BD4680BD80B483B000AF78607B681B68BB
:10258C005B6903F48063B3F5806F1BD17B681B68B8
:10259C006FF480625A617B6800221A637B68202288
:1025AC0083F83D207B68002283F83E207B681B6CFF
:1025BC0043F004027B681A647B68002283F83C2099
:1025CC00012300E0002318460C37BD4680BC704741
:1025DC0080B586B000AF78607B68002B01D10123F9
:1025EC0072E27B681B6803F00103002B00F087800C
:1025FC00924B5B6803F00C03042B0CD08F4B5B6885
:10260C0003F00C03082B12D18C4B5B6803F4803362
:10261C00B3F5803F0BD1894B1B6803F40033002BBF
:10262C006CD07B685B68002B68D101234CE27B6823
:10263C005B68B3F5803F06D1804B1B687F4A43F43F
:10264C00803313602EE07B685B68002B0CD17B4BD6
:10265C001B687A4A23F480331360784B1B68774AE3
:10266C0023F4802313601DE07B685B68B3F5A02F17
:10267C000CD1724B1B68714A43F4802313606F4B6F
:10268C001B686E4A43F4803313600BE06B4B1B6882
:10269C006A4A23F480331360684B1B68674A23F43F
:1026AC00802313607B685B68002B13D0FEF7D4FE8D
:1026BC00386108E0FEF7D0FE02463B69D31A642B62
:1026CC0001D9032300E25D4B1B6803F40033002B9C
:1026DC00F0D014E0FEF7C0FE386108E0FEF7BCFE57
:1026EC0002463B69D31A642B01D90323ECE1534B0B
:1026FC001B6803F40033002BF0D100E000BF7B68B3
:10270C001B6803F00203002B63D04C4B5B6803F097
:10271C000C03002B0BD0494B5B6803F00C03082B0C
:10272C001CD1464B5B6803F48033002B16D1434B12
:10273C001B6803F00203002B05D07B681B69012B7F
:10274C0001D00123C0E13D4B1B6823F0F8027B68EC
:10275C005B69DB00394913430B603AE07B681B690A
:10276C00002B20D0364B01221A60FEF775FE386123
:10277C0008E0FEF771FE02463B69D31A022B01D921
:10278C000323A1E12D4B1B6803F00203002BF0D0B7
:10279C002A4B1B6823F0F8027B685B69DB00274936
:1027AC0013430B6015E0264B00221A60FEF754FE13
:1027BC00386108E0FEF750FE02463B69D31A022B43
:1027CC0001D9032380E11D4B1B6803F00203002B8E
:1027DC00F0D17B681B6803F00803002B3AD07B68B0
:1027EC009B69002B19D0174B01221A60FEF734FE9F
:1027FC00386108E0FEF730FE02463B69D31A022B23
:10280C0001D9032360E10D4B5B6A03F00203002B3B
:10281C00F0D0012000F0BAFA1CE00A4B00221A603A
:10282C00FEF71AFE38610FE0FEF716FE02463B6912
:10283C00D31A022B08D9032346E100BF0010024033
:10284C000000424280044242924B5B6A03F0020356
:10285C00002BE9D17B681B6803F00403002B00F00C
:10286C00A6800023FB758B4BDB6903F08053002B98
:10287C000DD1884BDB69874A43F08053D361854B7C
:10288C00DB6903F08053BB60BB680123FB75824B93
:10289C001B6803F48073002B18D17F4B1B687E4A96
:1028AC0043F480731360FEF7D7FD386108E0FEF740
:1028BC00D3FD02463B69D31A642B01D9032303E1F0
:1028CC00754B1B6803F48073002BF0D07B68DB68BE
:1028DC00012B06D16F4B1B6A6E4A43F00103136246
:1028EC002DE07B68DB68002B0CD16A4B1B6A694AB4
:1028FC0023F001031362674B1B6A664A23F004033F
:10290C0013621CE07B68DB68052B0CD1614B1B6AE6
:10291C00604A43F0040313625E4B1B6A5D4A43F04A
:10292C00010313620BE05B4B1B6A5A4A23F0010351
:10293C001362584B1B6A574A23F0040313627B68DB
:10294C00DB68002B15D0FEF787FD38610AE0FEF737
:10295C0083FD02463B69D31A41F28832934201D976
:10296C000323B1E04B4B1B6A03F00203002BEED0A8
:10297C0014E0FEF771FD38610AE0FEF76DFD0246CA
:10298C003B69D31A41F28832934201D903239BE06D
:10299C00404B1B6A03F00203002BEED1FB7D012B95
:1029AC0005D13C4BDB693B4A23F08053D3617B68F8
:1029BC00DB69002B00F08780364B5B6803F00C035F
:1029CC00082B61D07B68DB69022B46D1334B00228C
:1029DC001A60FEF741FD386108E0FEF73DFD024646
:1029EC003B69D31A022B01D903236DE0294B1B68D9
:1029FC0003F00073002BF0D17B681B6AB3F5803FAA
:102A0C0008D1244B5B6823F400327B689B68214916
:102A1C0013434B601F4B5B6823F474127B68196A79
:102A2C007B685B6A0B431B4913434B601B4B0122B6
:102A3C001A60FEF711FD386108E0FEF70DFD024645
:102A4C003B69D31A022B01D903233DE0114B1B68C0
:102A5C0003F00073002BF0D035E0104B00221A600D
:102A6C00FEF7FAFC386108E0FEF7F6FC02463B691B
:102A7C00D31A022B01D9032326E0064B1B6803F063
:102A8C000073002BF0D11EE07B68DB69012B07D1B2
:102A9C00012319E000100240007000406000424227
:102AAC000B4B5B68FB60FB6803F480327B681B6A32
:102ABC009A4206D1FB6803F470127B685B6A9A42F7
:102ACC0001D0012300E0002318461837BD4680BD15
:102ADC000010024080B584B000AF786039607B682C
:102AEC00002B01D10123D0E06A4B1B6803F00703D4
:102AFC003A689A4210D9674B1B6823F00702654964
:102B0C003B6813430B60634B1B6803F007033A6885
:102B1C009A4201D00123B8E07B681B6803F00203E2
:102B2C00002B20D07B681B6803F00403002B05D01E
:102B3C00594B5B68584A43F4E06353607B681B68ED
:102B4C0003F00803002B05D0534B5B68524A43F447
:102B5C0060535360504B5B6823F0F0027B689B68BA
:102B6C004D4913434B607B681B6803F00103002B3A
:102B7C0040D07B685B68012B07D1474B1B6803F483
:102B8C000033002B15D101237FE07B685B68022B9F
:102B9C0007D1414B1B6803F00073002B09D10123B3
:102BAC0073E03D4B1B6803F00203002B01D10123A2
:102BBC006BE0394B5B6823F003027B685B6836493A
:102BCC0013434B60FEF748FCF8600AE0FEF744FC48
:102BDC000246FB68D31A41F28832934201D903238F
:102BEC0053E02D4B5B6803F00C027B685B689B0029
:102BFC009A42EBD1274B1B6803F007033A689A42C1
:102C0C0010D2244B1B6823F0070222493B68134364
:102C1C000B60204B1B6803F007033A689A4201D003
:102C2C00012332E07B681B6803F00403002B08D0FF
:102C3C00194B5B6823F4E0627B68DB68164913432D
:102C4C004B607B681B6803F00803002B09D0124B08
:102C5C005B6823F460527B681B69DB000E491343ED
:102C6C004B6000F021F802460B4B5B681B0903F02C
:102C7C000F030A49CB5C22FA03F3094A1360094B90
:102C8C001B681846FEF7A6FB002318461037BD46F6
:102C9C0080BD00BF0020024000100240BC5D000857
:102CAC00100000201400002080B487B000AF002377
:102CBC00FB600023BB6000237B6100237B6000234F
:102CCC003B611E4B5B68FB60FB6803F00C03042B41
:102CDC0002D0082B03D027E0194B3B6127E0FB689F
:102CEC009B0C03F00F03174AD35C7B60FB6803F467
:102CFC008033002B10D0114B5B685B0C03F001038D
:102D0C00114AD35CBB607B680D4A03FB02F2BB68C3
:102D1C00B2FBF3F37B6104E07B680C4A02FB03F328
:102D2C007B617B693B6102E0054B3B6100BF3B690A
:102D3C0018461C37BD4680BC704700BF00100240CF
:102D4C0000127A00D45D0008E45D000800093D0023
:102D5C0080B400AF024B1B681846BD4680BC704760
:102D6C001000002080B500AFFFF7F2FF0246054BC4
:102D7C005B681B0A03F007030349CB5C22FA03F3DD
:102D8C00184680BD00100240CC5D000880B485B0B0
:102D9C0000AF78600A4B1B680A4AA2FB03235B0A4C
:102DAC007A6802FB03F3FB6000BFFB685A1EFA60F3
:102DBC00002BF9D100BF00BF1437BD4680BC704753
:102DCC0010000020D34D621080B582B000AF786047
:102DDC007B68002B01D1012341E07B6893F83D30E7
:102DEC00DBB2002B06D17B68002283F83C2078688C
:102DFC00FEF71CFA7B68022283F83D207B681A6878
:102E0C007B6804331946104600F0E6FB7B68012210
:102E1C0083F846207B68012283F83E207B680122E0
:102E2C0083F83F207B68012283F840207B680122D5
:102E3C0083F841207B68012283F842207B680122C1
:102E4C0083F843207B68012283F844207B680122AD
:102E5C0083F845207B68012283F83D200023184627
:102E6C000837BD4680BD80B582B000AF78607B6806
:102E7C00002B01D1012341E07B6893F83D30DBB29C
:102E8C00002B06D17B68002283F83C20786800F088
:102E9C0039F87B68022283F83D207B681A687B68CE
:102EAC0004331946104600F097FB7B68012283F827
:102EBC0046207B68012283F83E207B68012283F840
:102ECC003F207B68012283F840207B68012283F835
:102EDC0041207B68012283F842207B68012283F821
:102EEC0043207B68012283F844207B68012283F80D
:102EFC0045207B68012283F83D20002318460837C3
:102F0C00BD4680BD80B483B000AF786000BF0C3785
:102F1C00BD4680BC704780B586B000AF7860396024
:102F2C007B68002B01D1012393E07B6893F83D3043
:102F3C00DBB2002B06D17B68002283F83C2078683A
:102F4C00FEF7C2F87B68022283F83D207B681B6881
:102F5C009B687A68126823F4804323F0070393601C
:102F6C007B681A687B6804331946104600F034FB02
:102F7C007B681B689B687B617B681B689B693B61FA
:102F8C007B681B681B6AFB603B681B687A69134390
:102F9C007B613B6923F4407323F003033B613B6883
:102FAC009A683B689B691B0213433A6913433B6164
:102FBC003B6923F4406323F00C033B613B6923F42E
:102FCC00704323F0F0033B613B68DA683B68DB69D4
:102FDC001B0213433A6913433B613B681B691A019B
:102FEC003B681B6A1B0313433A6913433B61FB6841
:102FFC0023F02203FB603B685A683B685B691B014A
:10300C001343FA681343FB607B681B687A699A6008
:10301C007B681B683A699A617B681B68FA681A625C
:10302C007B68012283F846207B68012283F83E20CE
:10303C007B68012283F83F207B68012283F84220C1
:10304C007B68012283F843207B68012283F83D20B2
:10305C00002318461837BD4680BD80B582B000AF3E
:10306C0078607B681B681B6903F00203022B22D17A
:10307C007B681B68DB6803F00203022B1BD17B68A7
:10308C001B686FF002021A617B6801221A777B6859
:10309C001B689B6903F00303002B03D0786800F0D6
:1030AC0080FA05E0786800F073FA786800F082FA2C
:1030BC007B6800221A777B681B681B6903F004038A
:1030CC00042B22D17B681B68DB6803F00403042B00
:1030DC001BD17B681B686FF004021A617B680222AB
:1030EC001A777B681B689B6903F44073002B03D031
:1030FC00786800F056FA05E0786800F049FA7868CC
:10310C0000F058FA7B6800221A777B681B681B69F1
:10311C0003F00803082B22D17B681B68DB6803F0E3
:10312C000803082B1BD17B681B686FF008021A611F
:10313C007B6804221A777B681B68DB6903F0030346
:10314C00002B03D0786800F02CFA05E0786800F0CA
:10315C001FFA786800F02EFA7B6800221A777B68D9
:10316C001B681B6903F01003102B22D17B681B68B2
:10317C00DB6803F01003102B1BD17B681B686FF00E
:10318C0010021A617B6808221A777B681B68DB695E
:10319C0003F44073002B03D0786800F002FA05E0CA
:1031AC00786800F0F5F9786800F004FA7B68002282
:1031BC001A777B681B681B6903F00103012B0ED186
:1031CC007B681B68DB6803F00103012B07D17B686C
:1031DC001B686FF001021A61786800F0D0F97B6807
:1031EC001B681B6903F08003802B0ED17B681B6866
:1031FC00DB6803F08003802B07D17B681B686FF0C2
:10320C0080021A61786800F0CEFC7B681B681B6931
:10321C0003F04003402B0ED17B681B68DB6803F086
:10322C004003402B07D17B681B686FF040021A618A
:10323C00786800F0C8F97B681B681B6903F02003F1
:10324C00202B0ED17B681B68DB6803F02003202B3E
:10325C0007D17B681B686FF020021A61786800F058
:10326C0099FC00BF0837BD4680BD000080B586B014
:10327C0000AFF860B9607A600023FB75FB6893F8C7
:10328C003C30012B01D10223AEE0FB68012283F814
:10329C003C207B680C2B00F29F8001A252F823F09B
:1032AC00E1320008E5330008E5330008E533000897
:1032BC0021330008E5330008E5330008E533000846
:1032CC0063330008E5330008E5330008E5330008F4
:1032DC00A3330008FB681B68B968184600F0DEF9D8
:1032EC00FB681B689A69FB681B6842F008029A61CC
:1032FC00FB681B689A69FB681B6822F004029A61E0
:10330C00FB681B689969BB681A69FB681B680A43F0
:10331C009A6164E0FB681B68B968184600F024FAEF
:10332C00FB681B689A69FB681B6842F400629A612F
:10333C00FB681B689A69FB681B6822F480629A61BF
:10334C00FB681B689969BB681B691A02FB681B68E0
:10335C000A439A6143E0FB681B68B968184600F0A1
:10336C006DFAFB681B68DA69FB681B6842F008029F
:10337C00DA61FB681B68DA69FB681B6822F00402DF
:10338C00DA61FB681B68D969BB681A69FB681B6842
:10339C000A43DA6123E0FB681B68B968184600F041
:1033AC00B7FAFB681B68DA69FB681B6842F40062B9
:1033BC00DA61FB681B68DA69FB681B6822F48062BF
:1033CC00DA61FB681B68D969BB681B691A02FB6868
:1033DC001B680A43DA6102E00123FB7500BFFB683E
:1033EC00002283F83C20FB7D18461837BD4680BD73
:1033FC0080B584B000AF786039600023FB737B68C4
:10340C0093F83C30012B01D10223B4E07B680122FC
:10341C0083F83C207B68022283F83D207B681B6884
:10342C009B68BB60BB6823F07703BB60BB6823F46D
:10343C007F43BB607B681B68BA689A603B681B68FB
:10344C00B3F5005F3ED0B3F5005F00F28780B3F5B3
:10345C00805F00F08680B3F5805F7FD8702B1AD028
:10346C00702B7BD8602B50D0602B77D8502B3CD056
:10347C00502B73D8402B58D0402B6FD8302B64D0A6
:10348C00302B6BD8202B60D0202B67D8002B5CD036
:10349C00102B5AD062E07B6818683B6899683B68CF
:1034AC005A683B68DB6800F0F8FA7B681B689B681D
:1034BC00BB60BB6843F07703BB607B681B68BA6872
:1034CC009A604FE07B6818683B6899683B685A685B
:1034DC003B68DB6800F0E1FA7B681B689A687B68E4
:1034EC001B6842F480429A603CE07B6818683B6839
:1034FC0059683B68DB681A4600F058FA7B681B6811
:10350C005021184600F0AFFA2CE07B6818683B6835
:10351C0059683B68DB681A4600F076FA7B681B68D2
:10352C006021184600F09FFA1CE07B6818683B6825
:10353C0059683B68DB681A4600F038FA7B681B68F0
:10354C004021184600F08FFA0CE07B681A683B6843
:10355C001B681946104600F086FA03E00123FB7342
:10356C0000E000BF7B68012283F83D207B680022CD
:10357C0083F83C20FB7B18461037BD4680BD80B4D9
:10358C0083B000AF786000BF0C37BD4680BC70477D
:10359C0080B483B000AF786000BF0C37BD4680BCF0
:1035AC00704780B483B000AF786000BF0C37BD4665
:1035BC0080BC704780B483B000AF786000BF0C371C
:1035CC00BD4680BC704780B483B000AF786000BF4C
:1035DC000C37BD4680BC704780B485B000AF7860B6
:1035EC0039607B681B68FB607B68294A93420BD06F
:1035FC007B68B3F1804F07D07B68264A934203D097
:10360C007B68254A934208D1FB6823F07003FB606A
:10361C003B685B68FA681343FB607B681C4A934207
:10362C000BD07B68B3F1804F07D07B68194A93426B
:10363C0003D07B68184A934208D1FB6823F440738B
:10364C00FB603B68DB68FA681343FB60FB6823F0A4
:10365C0080023B685B691343FB607B68FA681A6005
:10366C003B689A687B68DA623B681A687B689A6286
:10367C007B68074A934203D13B681A697B681A63DB
:10368C007B6801225A6100BF1437BD4680BC70476D
:10369C00002C0140000400400008004080B487B0BA
:1036AC0000AF786039607B681B6A7B617B681B6A42
:1036BC0023F001027B681A627B685B683B617B6864
:1036CC009B69FB60FB6823F07003FB60FB6823F0D5
:1036DC000303FB603B681B68FA681343FB607B6960
:1036EC0023F002037B613B689B687A6913437B611F
:1036FC007B681C4A93420CD17B6923F008037B61E5
:10370C003B68DB687A6913437B617B6923F00403B4
:10371C007B617B68134A934211D13B6923F480731C
:10372C003B613B6923F400733B613B685B693A691D
:10373C0013433B613B689B693A6913433B617B686C
:10374C003A695A607B68FA689A613B685A687B6888
:10375C005A637B687A691A6200BF1C37BD4680BC0D
:10376C00704700BF002C014080B487B000AF786078
:10377C0039607B681B6A7B617B681B6A23F01002D3
:10378C007B681A627B685B683B617B689B69FB604A
:10379C00FB6823F4E043FB60FB6823F44073FB609D
:1037AC003B681B681B02FA681343FB607B6923F0C0
:1037BC0020037B613B689B681B017A6913437B6127
:1037CC007B681D4A93420DD17B6923F080037B619A
:1037DC003B68DB681B017A6913437B617B6923F0CF
:1037EC0040037B617B68144A934213D13B6923F4F9
:1037FC0080633B613B6923F400633B613B685B691D
:10380C009B003A6913433B613B689B699B003A6997
:10381C0013433B617B683A695A607B68FA689A612A
:10382C003B685A687B689A637B687A691A6200BF46
:10383C001C37BD4680BC7047002C014080B487B05B
:10384C0000AF786039607B681B6A7B617B681B6AA0
:10385C0023F480727B681A627B685B683B617B68CF
:10386C00DB69FB60FB6823F07003FB60FB6823F0F3
:10387C000303FB603B681B68FA681343FB607B69BE
:10388C0023F400737B613B689B681B027A691343CA
:10389C007B617B681D4A93420DD17B6923F40063E5
:1038AC007B613B68DB681B027A6913437B617B6934
:1038BC0023F480637B617B68144A934213D13B6988
:1038CC0023F480533B613B6923F400533B613B6819
:1038DC005B691B013A6913433B613B689B691B01A4
:1038EC003A6913433B617B683A695A607B68FA68B2
:1038FC00DA613B685A687B68DA637B687A691A62BA
:10390C0000BF1C37BD4680BC704700BF002C014077
:10391C0080B487B000AF786039607B681B6A3B610C
:10392C007B681B6A23F480527B681A627B685B6835
:10393C007B617B68DB69FB60FB6823F4E043FB6025
:10394C00FB6823F44073FB603B681B681B02FA683E
:10395C001343FB603B6923F400533B613B689B685A
:10396C001B033A6913433B617B680F4A934209D1AD
:10397C007B6923F480437B613B685B699B017A69BB
:10398C0013437B617B687A695A607B68FA68DA61F9
:10399C003B685A687B681A647B683A691A6200BF94
:1039AC001C37BD4680BC7047002C014080B487B0EA
:1039BC0000AFF860B9607A60FB681B6A7B61FB68DA
:1039CC001B6A23F00102FB681A62FB689B693B616E
:1039DC003B6923F0F0033B617B681B013A6913439D
:1039EC003B617B6923F00A037B617A69BB681343F3
:1039FC007B61FB683A699A61FB687A691A6200BF5D
:103A0C001C37BD4680BC704780B487B000AFF860EF
:103A1C00B9607A60FB681B6A7B61FB681B6A23F0E8
:103A2C001002FB681A62FB689B693B613B6923F4DB
:103A3C0070433B617B681B033A6913433B617B69B1
:103A4C0023F0A0037B61BB681B017A6913437B6184
:103A5C00FB683A699A61FB687A691A6200BF1C3785
:103A6C00BD4680BC704780B485B000AF78603960CB
:103A7C007B689B68FB60FB6823F07003FB603A6813
:103A8C00FB68134343F00703FB607B68FA689A609A
:103A9C0000BF1437BD4680BC704780B487B000AF00
:103AAC00F860B9607A603B60FB689B687B617B69FE
:103ABC0023F47F437B613B681A027B681A43BB6823
:103ACC0013437A6913437B61FB687A699A6000BF80
:103ADC001C37BD4680BC704780B485B000AF7860A1
:103AEC0039607B6893F83C30012B01D1022346E00E
:103AFC007B68012283F83C207B68022283F83D20FE
:103B0C007B681B685B68FB607B681B689B68BB60A1
:103B1C00FB6823F07003FB603B681B68FA68134377
:103B2C00FB607B681B68FA685A607B681B68164AE6
:103B3C0093420ED07B681B68B3F1804F09D07B6831
:103B4C001B68124A934204D07B681B68104A93424C
:103B5C000CD1BB6823F08003BB603B685B68BA6820
:103B6C001343BB607B681B68BA689A607B68012250
:103B7C0083F83D207B68002283F83C200023184604
:103B8C001437BD4680BC7047002C01400004004037
:103B9C000008004080B483B000AF786000BF0C37E1
:103BAC00BD4680BC704780B483B000AF786000BF66
:103BBC000C37BD4680BC704770B500260C4D0D4CC3
:103BCC00641BA410A64209D100F07EF800260A4D11
:103BDC000A4C641BA410A64205D170BD55F8043BD9
:103BEC0098470136EEE755F8043B98470136F2E763
:103BFC000C5E00080C5E00080C5E0008105E0008ED
:103C0C00931E222B10B50C4604D900231C460B70B6
:103C1C00204610BD0A2A09D1002807DA2D230B7083
:103C2C0001214042214400F00DF8F1E70021F9E7B1
:103C3C00FFF7E6BF03460244934200D1704703F8F6
:103C4C00011BF9E7F0B58BB005460B466E461D4CD3
:103C5C0004F1200C374620686168083403C76445BA
:103C6C003E46F7D1217920683971911E222938609E
:103C7C004FF0000104D919700B4618460BB0F0BD7B
:103C8C00581E8446B5FBF2F702FB175628366E44D5
:103C9C0016F8286C0C460CF8016F2E46B2423D46C5
:103CAC0001F10101EED900225A541919A51AAA42A0
:103CBC00E3DA10F8015F0E780132067001F8015951
:103CCC00F4E700BFE65D0008F8B500BFF8BC08BC1F
:103CDC009E467047F8B500BFF8BC08BC9E467047BE
:103CEC0049736D61696C000041686D65640000008A
:103CFC0053434F524500000020202020202020203C
:103D0C002020202020000000000000000000000007
:103D1C000000000000000000000000000000000097
:103D2C000000000000000000000000000000000C7B
:103D3C00000C000C000C000C000C000C000C000C17
:103D4C00000C000C0000000C000C00000000000037
:103D5C000000001B001B001B001B001B00000000D0
:103D6C000000000000000000000000000000000047
:103D7C000000000000008019801980198019C07F94
:103D8C00C07F80190033C07FC07F00330033003305
:103D9C0000330000000000000000001E003F807592
:103DAC0080650074003C001E0007800580658065FE
:103DBC008075003F001E000400040000000000702D
:103DCC0000D840D8C0D880D900730006000C801BE6
:103DDC00C036C066C046C00680030000000000006C
:103DEC000000001E003F003300330033001E000CA7
:103DFC00C03CC066806380618063C03E801C000054
:103E0C00000000000000000C000C000C000C000C6A
:103E1C000000000000000000000000000000000096
:103E2C0000000000000000008000000100030006FC
:103E3C0000060004000C000C000C000C000C000C24
:103E4C0000040006000600030001800000200010A2
:103E5C000018000C000C000400060006000600060A
:103E6C00000600060004000C000C001800100020D6
:103E7C000000000C002D003F001E0033000000006D
:103E8C000000000000000000000000000000000026
:103E9C0000000000000000000000000C000C000CF2
:103EAC00000CC0FFC0FF000C000C000C000C00004C
:103EBC0000000000000000000000000000000000F6
:103ECC0000000000000000000000000000000000E6
:103EDC000000000C000C00040004000800000000AE
:103EEC000000000000000000000000000000001EA8
:103EFC00001E000000000000000000000000000098
:103F0C0000000000000000000000000000000000A5
:103F1C0000000000000000000000000C000C00007D
:103F2C000000000000000003000300030006000670
:103F3C0000060006000C000C000C000C0018001809
:103F4C0000180000000000000000001E003F0033BD
:103F5C00806180618061806D806D80618061806135
:103F6C000033003F001E00000000000000000006AF
:103F7C00000E001E00360026000600060006000695
:103F8C000006000600060006000600000000000007
:103F9C000000001E003F807380618061800100037F
:103FAC000006000C001800300060807F807F00004D
:103FBC00000000000000001C003E006300630003D2
:103FCC00000E000E00038001800180618073003FB1
:103FDC00001E00000000000000000006000E000E95
:103FEC00001E001E0016003600360066807F807FA3
:103FFC000006000600060000000000000000007F24
:10400C00007F006000600060006E007F80638001B4
:10401C00800180618073003F001E000000000000E2
:10402C000000001E003F803380610060006E007F46
:10403C0080738061806180618033003F001E0000CE
:10404C00000000000000807F807F800100030003DF
:10405C0000060006000C000C000C000800180018EC
:10406C0000180000000000000000001E003F8063EC
:10407C00806180610021001E003F80618061806151
:10408C008061003F001E0000000000000000001EC8
:10409C00003F00738061806180618073803F801D70
:1040AC00800180610073003F001E000000000000D2
:1040BC0000000000000000000000000C000C0000DC
:1040CC0000000000000000000000000C000C0000CC
:1040DC0000000000000000000000000000000000D4
:1040EC00000C000C00000000000000000000000CA0
:1040FC00000C000400040008000000000000000098
:10410C0080008003000E003800600038000E800331
:10411C008000000000000000000000000000000013
:10412C00000000000000807F807F00000000807F86
:10413C00807F000000000000000000000000000074
:10414C00000000000000000000400070001C000790
:10415C0080010007001C00700040000000000000FF
:10416C00000000000000001F803FC071C060C00054
:10417C00C00180030007000E000C000C0000000CB6
:10418C00000C0000000000000000001E003F803109
:10419C0080718063806F806D806D806F8067006040
:1041AC000032003E001C0000000000000000000E69
:1041BC00000E001B001B001B001B80318031803F58
:1041CC00803F8031C060C060C06000000000000013
:1041DC000000007C007E0063006300630063007ECF
:1041EC00007E0063806180618063007F007E000040
:1041FC00000000000000001E003F80318061006064
:10420C000060006000600060006080618031003FF1
:10421C00001E0000000000000000007C007F006316
:10422C0080638061806180618061806180610063F6
:10423C000063007E007C0000000000000000807F16
:10424C00807F0060006000600060007F007F006085
:10425C00006000600060807F807F00000000000034
:10426C000000807F807F0060006000600060007F45
:10427C00007F006000600060006000600060000073
:10428C00000000000000001E003F803180610060D3
:10429C000060006080638063806180618031803F5A
:1042AC00001E000000000000000080618061806141
:1042BC00806180618061807F807F806180618061AE
:1042CC008061806180610000000000000000003F00
:1042DC00003F000C000C000C000C000C000C000C3F
:1042EC00000C000C000C003F003F00000000000020
:1042FC00000080018001800180018001800180012B
:10430C0080018001806180618073003F001E00008D
:10431C00000000000000C060806100630066006661
:10432C00006C0078007C0066006600638061806130
:10433C00C060000000000000000000600060006031
:10434C000060006000600060006000600060006061
:10435C000060807F807F0000000000000000C071C2
:10436C00C071C07BC07AC06AC06AC06EC064C060D5
:10437C00C060C060C060C060C06000000000000091
:10438C00000080718071807980798079806D806D7A
:10439C00806D8065806780678067806380630000C4
:1043AC00000000000000001E003F003380618061AF
:1043BC008061806180618061806180610033003F39
:1043CC00001E0000000000000000007E007F8063E3
:1043DC008061806180618063007F007E006000608E
:1043EC000060006000600000000000000000001E83
:1043FC00003F0033806180618061806180618061F9
:10440C00806580670033803F401E00000000000084
:10441C000000007E007F8063806180618063007F8C
:10442C00007E00660063006380618061C0600000F4
:10443C00000000000000000E001F803180310030B1
:10444C000038001E00078003806180618031003FCE
:10445C00001E0000000000000000C0FFC0FF000CA8
:10446C00000C000C000C000C000C000C000C000CE0
:10447C00000C000C000C000000000000000080612B
:10448C008061806180618061806180618061806118
:10449C00806180618073003F001E000000000000FE
:1044AC000000C060C060C060803180318031001B72
:1044BC00001B001B001B000E000E000E0004000071
:1044CC00000000000000C0C0C0C0C0C0C0C0C0C060
:1044DC00C0CC804C804C805E805280528073806156
:1044EC0080610000000000000000C0C0806080619E
:1044FC000033003B001E000C000C001E001F003B94
:10450C0080718061C0C00000000000000000C0C0CD
:10451C008061806100330033001E001E000C000C13
:10452C00000C000C000C000C000C00000000000043
:10453C000000803F803F8001000300030006000C58
:10454C00000C0018001800300060807F807F000095
:10455C0000000000000F000F000C000C000C000C01
:10456C00000C000C000C000C000C000C000C000CDF
:10457C00000C000C000F000F0000001800180018B1
:10458C00000C000C000C000C0006000600060006D7
:10459C00000300030003000000000000001E001ECA
:1045AC0000060006000600060006000600060006CF
:1045BC00000600060006000600060006001E001E8F
:1045CC000000000C000C001E001200330033806150
:1045DC0080610000000000000000000000000000EE
:1045EC0000000000000000000000000000000000BF
:1045FC0000000000000000000000000000000000AF
:10460C0000000000E0FF0000000000380018000C63
:10461C00000000000000000000000000000000008E
:10462C00000000000000000000000000000000007E
:10463C00000000000000001F803F80618001801F8F
:10464C00803F80618063807FC038000000000000E4
:10465C0000000060006000600060006E007F8073EE
:10466C0080618061806180618073007F006E0000DA
:10467C000000000000000000000000000000001E10
:10468C00003F807380610060006080618073003F38
:10469C00001E00000000000000008001800180016D
:1046AC008001801D803F80738061806180618061AA
:1046BC008073803F801D000000000000000000009F
:1046CC00000000000000001E003F00738061807F2E
:1046DC00807F00608071003F001E00000000000021
:1046EC000000C007C00F000C000C807F807F000C06
:1046FC00000C000C000C000C000C000C000C00005A
:10470C00000000000000000000000000801D803F41
:10471C00807380618061806180618073803F801DC7
:10472C0080018063007F003E00000060006000603C
:10473C000060006F807F807180618061806180612A
:10474C0080618061806100000000000000000006B4
:10475C00000600000000003E003E000600060006B9
:10476C00000600060006000600060000000000001F
:10477C000006000600000000003E003E0006000699
:10478C0000060006000600060006000600060046AD
:10479C00007E003C000000600060006000608061F2
:1047AC0000630066006C007C00760063006380612F
:1047BC00C0600000000000000000003E003E00064B
:1047CC0000060006000600060006000600060006AD
:1047DC0000060006000600000000000000000000BB
:1047EC0000000000000080DDC0FFC0CEC0CCC0CCFB
:1047FC00C0CCC0CCC0CCC0CCC0CC000000000000F1
:10480C0000000000000000000000006F807F80713D
:10481C008061806180618061806180618061000065
:10482C000000000000000000000000000000001E5E
:10483C00003F807380618061806180618073003F84
:10484C00001E00000000000000000000000000003E
:10485C00006E007F807380618061806180618073F5
:10486C00007F006E006000600060006000000000CF
:10487C0000000000801D803F80738061806180613A
:10488C0080618073803F801D8001800180018001E8
:10489C00000000000000000000000067803F0039AD
:1048AC0000300030003000300030003000300000AC
:1048BC000000000000000000000000000000001ECE
:1048CC00803F80610060007F803F80018061007FBD
:1048DC00001E00000000000000000000000800188E
:1048EC000018007F007F001800180018001800182E
:1048FC000018801F800F0000000000000000000066
:10490C000000000000008061806180618061806136
:10491C00806180618063807F803D0000000000002A
:10492C0000000000000000000000C06080318031F9
:10493C008031001B001B001B000E000E0006000047
:10494C00000000000000000000000000000080DDFE
:10495C0080DD80DD00550055005500770077002282
:10496C000022000000000000000000000000000019
:10497C000000806100330033001E000C000C001E90
:10498C0000330033806100000000000000000000D4
:10499C000000000080618061803100330033001B17
:1049AC00001B001B000E000E000E001C007C007093
:1049BC0000000000000000000000C07FC07F8001EC
:1049CC0000030006000C00180030C07FC07F000000
:1049DC0000000000800380070006000600060006A9
:1049EC000006000E001C001C000E0006000600064F
:1049FC00000600068007800300060006000600067D
:104A0C00000600060006000600060006000600066A
:104A1C000006000600060006000600060038003CF2
:104A2C00000C000C000C000C000C000E0007000722
:104A3C00000E000C000C000C000C000C003C0038AC
:104A4C0000000000000000000000000000008038A2
:104A5C00807F004700000000000000000000000004
:104A6C00000000000000000000000000000000003A
:104A7C00000000000000000000000000000000002A
:104A8C00000000000000000000000000000000001A
:104A9C000000000000000000E003E003E003E0037E
:104AAC00E003E003E003E003C003C003C001C00166
:104ABC00C001C001C001000000000000E003E003E1
:104ACC00E003000000000000000000003C1E3C1E43
:104ADC003C1E3C1E3C1E3C1E3C1E00000000000008
:104AEC0000000000000000000000000000000000BA
:104AFC0000000000000000000000000000000000AA
:104B0C00CE01CE03DE039E039C039C07FF3FFF7F79
:104B1C003807380F780F780F780EFFFFFFFFF01E65
:104B2C00F01CE01CE03CE03DE0390000000000001F
:104B3C0000000000FC03FE0FEE1FE01EE01EE01E56
:104B4C00E01EE01FE00FE007F003FC01FE01FE0198
:104B5C00FE01FE01FE01FE01FE3DFC3FF00FE001F7
:104B6C00E001000000000000033E07F78FE78EE72E
:104B7C009EE3BCE3B8E7F8E7F0F7E03FC001FF03C2
:104B8C00FF07F307F30FF31EF33CF338F3787FF0D2
:104B9C003FE000000000000000000000E007F80FFC
:104BAC00780F781F781F781F780FF00FE00F801F99
:104BBC00C37FC3FBE7F3F7F1F7F0FFF07FF03EF8AC
:104BCC007F7CFF3FEF1F0000000000000000000092
:104BDC00E003E003E003E003E003C003C0010000D6
:104BEC0000000000000000000000000000000000B9
:104BFC0000000000000000000000000000000000A9
:104C0C00000000003F007C00F001E001C003C00781
:104C1C0080078007800F000F000F000F000F000FA0
:104C2C00000F800F80078007C007C003E001F00170
:104C3C007C003F000F000000007E001FC007C00377
:104C4C00E001F001F000F000F80078007800780046
:104C5C00780078007800F800F000F000F001E00136
:104C6C00C003C007001F007E00780000E003C003F3
:104C7C00C001CE39FF3F7F3F20037003F807780F48
:104C8C003C1F38060000000000000000000000007F
:104C9C000000000000000000000000000000000008
:104CAC00000000000000000000000000C001C00176
:104CBC00C001C001C001C001C001FFFFFFFFC00166
:104CCC00C001C001C001C001C00100000000000013
:104CDC0000000000000000000000000000000000C8
:104CEC0000000000000000000000000000000000B8
:104CFC00000000000000E003E003E003E003E0013B
:104D0C00E001E001C0018003000000000000000091
:104D1C000000000000000000000000000000FE3F4A
:104D2C00FE3F00000000000000000000000000003A
:104D3C000000000000000000000000000000000067
:104D4C000000000000000000000000000000000057
:104D5C000000000000000000000000000000E00364
:104D6C00E003E003E003000000000000000000008E
:104D7C000F000F001E001E003C003C007800780065
:104D8C00F000F000E001E001C003C00380078007E1
:104D9C00000F000F001E001E003C003C0078007845
:104DAC0000F00000F007F80F7C1F3E3E1E3C1F7CFD
:104DBC001F7C0F780F780F780F780F780F780F789B
:104DCC001F7C1F7C1E3C3E3E7C1FF80FF007000032
:104DDC000000000000000000F000F007F03FF03F82
:104DEC00F001F001F001F001F001F001F001F0012F
:104DFC00F001F001F001F001F001F001F001FF3FD2
:104E0C00FF3F00000000000000000000E00FF83F32
:104E1C007C3C3C003E003E003E003C003C007C00E4
:104E2C00F800F001E003C0078007000F001E003EF1
:104E3C00003CFE3FFE3F00000000000000000000B0
:104E4C00F00FF81F7C1C3E003E003E003C003C0076
:104E5C00F800F00FF80F7C003E001E001E001E0034
:104E6C001E003E007C1CF81FE01F0000000000002C
:104E7C00000000007800F800F800F801F803F807CB
:104E8C00F807780F781E781E783C78787878FFFFD2
:104E9C00FFFF780078007800780078007800000038
:104EAC000000000000000000FC1FFC1FFC1F001E87
:104EBC00001E001E001E001EE01FF81FFC007C00E0
:104ECC003E003E001E003E003E003C007C1CF81FD5
:104EDC00E01F00000000000000000000FC01FE07C5
:104EEC008E0F001F001E003E003C003CF83DFC3FB6
:104EFC003E7F1F7E0F3C0F3C0F3C0F3C0F3E1F1E96
:104F0C003E1FFC0FF003000000000000000000003A
:104F1C00FF3FFF3FFF3F0F001E001E003C0038000C
:104F2C007800F000F000E001E001C003C00380074E
:104F3C00800F800F000F001F001F000000000000FA
:104F4C0000000000F807FC0F3E1F1E1E1E3E1E3EFA
:104F5C001E1E3C1FF80FF007F80FFC1E3E3E1F3CB8
:104F6C001F7C0F7C0F7C1F3C3E3FFC1FF00700009A
:104F7C000000000000000000F007F80F7C1E3E3C13
:104F8C001E3C1F7C1F7C1F7C1F7C1F3C3F3EFF1F59
:104F9C00EF071F001E001E003E003C00F838F03FDB
:104FAC00E01F0000000000000000000000000000F6
:104FBC000000000000000000E003E003E003E00359
:104FCC000000000000000000000000000000E003F2
:104FDC00E003E003E003000000000000000000001C
:104FEC00000000000000000000000000E003E003EF
:104FFC00E003E003000000000000000000000000DF
:10500C000000E003E003E003E003E001E001E00165
:10501C00C00380030000000000000000000000003E
:10502C0003000F003F00FC00F003C00F003F00FE28
:10503C00003FC00FF003FC003F000F000300000016
:10504C000000000000000000000000000000000054
:10505C00000000000000000000000000FFFFFFFF48
:10506C00000000000000FFFFFFFF00000000000038
:10507C000000000000000000000000000000000024
:10508C00000000000000000000E000F8007E801F1F
:10509C00E007F8017E001F007E00F801E007801F8A
:1050AC00007E00F800E0000000000000000000009E
:1050BC00F01FFC3F3E381F381F381E001E003C00FE
:1050CC007800F000E001C003C003C007C007000077
:1050DC0000000000C007C007C0070000000000006F
:1050EC0000000000F803FE0F1E1F0F3E7F3CFF78F0
:1050FC00EF79C773C7F38FF38FF38FF39FF39FF39E
:10510C00FF73FF7BF779003C1C1FFC0FF8030000BA
:10511C000000000000000000000000000000E003A0
:10512C00E003F007F007F007780F780F7C0E3C1EB9
:10513C003C1E3E3CFE3FFF3F1F780F780FF007F000
:10514C0007F000000000000000000000000000005C
:10515C000000F83FFC3F3E3C1E3C1E3C1E3C3E3CCF
:10516C007C3CF03FF83F7E3C1F3C1F3C0F3C0F3C0F
:10517C001F3CFE3FF83F0000000000000000000054
:10518C00000000000000FF01FF07871F003E003CED
:10519C00007C00780078007800780078007C007C37
:1051AC00003E003F831FFF07FF01000000000000CE
:1051BC0000000000000000000000F07FFC7F7E7803
:1051CC001F781F780F780F780F780F780F780F787B
:1051DC000F780F781F781E787E78F87FE07F0000BC
:1051EC000000000000000000000000000000FF3F75
:1051FC00FF3F003E003E003E003E003E003EFE3FB4
:10520C00FE3F003E003E003E003E003E003EFF3FA3
:10521C00FF3F000000000000000000000000000044
:10522C000000FF1FFF1F001E001E001E001E001EA0
:10523C00001EFF1FFF1F001E001E001E001E001E72
:10524C00001E001E001E00000000000000000000F8
:10525C00000000000000FE03FF0F871F003E007CD3
:10526C00007C007800F800F87FF87FF80F780F7C4E
:10527C000F7C0F3E8F1FFF0FFE030000000000008D
:10528C00000000000000000000001F7C1F7C1F7C41
:10529C001F7C1F7C1F7C1F7C1F7CFF7FFF7F1F7C64
:1052AC001F7C1F7C1F7C1F7C1F7C1F7C1F7C0000B5
:1052BC000000000000000000000000000000FF3FA4
:1052CC00FF3FE003E003E003E003E003E003E0035F
:1052DC00E003E003E003E003E003E003E003FF3F4F
:1052EC00FF3F000000000000000000000000000074
:1052FC000000FC1FFC1F7C007C007C007C007C0000
:10530C007C007C007C007C007C007C0078007800B9
:10531C00F838F03FC03F0000000000000000000023
:10532C000000000000001F3C1E3C3C3C783CF03C64
:10533C00E03DE03FC03F803FC03FE03FF03DF03CF0
:10534C00783C7C3C3E3C1F3C0F3C000000000000C5
:10535C0000000000000000000000003E003E003E87
:10536C00003E003E003E003E003E003E003E003E41
:10537C00003E003E003E003E003EFF3FFF3F00006F
:10538C0000000000000000000000000000001FF8FA
:10539C001FFC1FFC3FFE3FFE3FFE7FFF77FF77FFAA
:1053AC00F7F7E7F7E7F3E7F3C7F307F007F007F0D2
:1053BC0007F00000000000000000000000000000EA
:1053CC0000000F7C0F7C0F7E0F7F0F7F8F7F8F7FF6
:1053DC00CF7FEF7BEF79FF79FF78FF787F783F788D
:1053EC003F781F781F7800000000000000000000CC
:1053FC00000000000000F007FC1F3E3E1F7C0F78F1
:10540C000F780FF80FF80FF80FF80FF80FF80F7858
:10541C000F781F7C3E3EFC1FF007000000000000D0
:10542C0000000000000000000000FC3FFF3F1F3E9A
:10543C000F3E0F3E0F3E0F3E1F3E3F3EFC3FF03FE8
:10544C00003E003E003E003E003E003E003E00009E
:10545C000000000000000000000000000000F00749
:10546C00FC1F3E3E1F7C0F780F780FF80FF80FF8DB
:10547C000FF80FF80FF80F780F781F7C3E3EFC1FCB
:10548C00F8077C003F000F00030000000000000044
:10549C000000F03FFC3F7E3C3E3C1E3C1E3C3E3C34
:1054AC003C3CFC3CF03FE03FF03DF83C7C3C3E3C5F
:1054BC001E3C1F3C0F3C00000000000000000000E0
:1054CC00000000000000FC07FE1F0E3E003C003CEC
:1054DC00003C003EC01FF80FFE037F001F000F00B2
:1054EC000F001F203E3CFC3FF01F0000000000009E
:1054FC0000000000000000000000FFFFFFFFE003C1
:10550C00E003E003E003E003E003E003E003E00377
:10551C00E003E003E003E003E003E003E00300004A
:10552C0000000000000000000000000000000F7CE4
:10553C000F7C0F7C0F7C0F7C0F7C0F7C0F7C0F7C07
:10554C000F7C0F7C0F7C0F7C1E3C1E3C3E3EFC1FD8
:10555C00F007000000000000000000000000000048
:10556C00000007F007F007F80F780F7C1E3C1E3C7C
:10557C001E3E3C1E3C1F781F780FF80FF007F007FB
:10558C00F007E003E0030000000000000000000052
:10559C0000000000000003E003F003F007F0E7F365
:1055AC00E7F3E7F3E773F77BF77FFF7F7F7F7F7F7F
:1055BC007E7F7E3F3E3E3E3E3E3E000000000000B1
:1055CC000000000000000000000007F80F7C1E3EE9
:1055DC003E3E3C1FF80FF007E007E003E003F00746
:1055EC00F80F7C0F7C1E3E3C1F780F780FF00000EC
:1055FC00000000000000000000000000000007F8A0
:10560C0007780F7C1E3C1E3E3C1F780FF80FF007EE
:10561C00E003E003E003E003E003E003E003E00366
:10562C00E00300000000000000000000000000008B
:10563C000000FF7FFF7F0F001F003E007C00F80082
:10564C00F000E001E003C007800F000F001E003ED9
:10565C00007CFF7FFF7F00000000000000000000C6
:10566C00FF07800780078007800780078007800777
:10567C0080078007800780078007800780078007E6
:10568C008007800780078007800780078007FF0757
:10569C00FF07000000780078003C003C001E001E54
:1056AC00000F000F80078007C003C003E001E0017A
:1056BC00F000F000780078003C003C001E001E005A
:1056CC000F000F0007000000F07FF000F000F0006A
:1056DC00F000F000F000F000F000F000F000F0003E
:1056EC00F000F000F000F000F000F000F000F0002E
:1056FC00F000F000F000F07FF07F0000C000C0016F
:10570C00C001E003E003F007F0077807780F380FCB
:10571C003C1E3C1E1E3C1E3C0F380F7807780000C8
:10572C00000000000000000000000000000000006D
:10573C00000000000000000000000000000000005D
:10574C00000000000000000000000000000000004D
:10575C0000000000000000000000FFFFFFFF000041
:10576C0000000000F000000000000000000000003D
:10577C00000000000000000000000000000000001D
:10578C00000000000000000000000000000000000D
:10579C0000000000000000000000000000000000FD
:1057AC0000000000F80FFC3F7C3C3E003E003E0039
:1057BC00FE07FE1F3E3E3E7C3E783E7C7E7CFF3FDD
:1057CC00CF1F00000000000000000000003C003C67
:1057DC00003C003C003C003CF83DFE3F3E3F1F3E81
:1057EC000F3C0F3C0F3C0F3C0F3C0F3C1F3C1E3C36
:1057FC003E3FFC3FF03B00000000000000000000BA
:10580C00000000000000000000000000FE03FF0F7D
:10581C00871F003E003E003C007C007C007C003C6E
:10582C00003E003E871FFF0FFE030000000000003B
:10583C00000000001F001F001F001F001F001F00A2
:10584C00FF07FF1F3F3E1F3C1F7C1F7C1F7C1F78E8
:10585C001F781F7C1F7C3F3C7F3EFF1FDF0F00002B
:10586C00000000000000000000000000000000002C
:10587C0000000000F803FC0F3E1F1E3E1F3C1F7C67
:10588C00FF7FFF7F007C007C003C003E071FFF0F6A
:10589C00FE0300000000000000000000FF01E10317
:1058AC00C003C007C007C007FF7FFF7FC007C0074A
:1058BC00C007C007C007C007C007C007C007C007A4
:1058CC00C007C007C0070000000000000000000077
:1058DC00000000000000000000000000EF07FF1FA8
:1058EC007F3E1F3C1F7C1F7C1F781F781F781F7CFE
:1058FC001F7C3F3C7F3EFF1FDF0F1E001E001E0063
:10590C007C38F83F003C003C003C003C003C003C38
:10591C00FC3DFE3F9E3F1F3F1F3E1F3C1F3C1F3C5C
:10592C001F3C1F3C1F3C1F3C1F3C1F3C1F3C0000EE
:10593C000000000000000000F001F0010000000079
:10594C0000000000E07FE07FE001E001E001E00109
:10595C00E001E001E001E001E001E001E001E00133
:10596C00E00100000000000000000000F800F8005A
:10597C000000000000000000F83FF83FF800F800BD
:10598C00F800F800F800F800F800F800F800F8004B
:10599C00F800F800F800F800F800F000F071E07F73
:1059AC00003C003C003C003C003C003C1F3C3E3CAE
:1059BC007C3CF83CF03DE03DC03FC03FE03FF03D5B
:1059CC00F83C7C3C3E3C1F3C1F3C000000000000AF
:1059DC0000000000F07FF001F001F001F001F00197
:1059EC00F001F001F001F001F001F001F001F00123
:1059FC00F001F001F001F001F001F001F001000004
:105A0C00000000000000000000000000000000008A
:105A1C00000000009EF7FFFFFFFFFFFFE7FBE7F929
:105A2C00C7F1C7F1C7F1C7F1C7F1C7F1C7F1C7F1AA
:105A3C00C7F10000000000000000000000000000A2
:105A4C000000000000000000FC3DFE3F9E3F1F3F99
:105A5C001F3E1F3C1F3C1F3C1F3C1F3C1F3C1F3C60
:105A6C001F3C1F3C1F3C0000000000000000000019
:105A7C00000000000000000000000000F007FC1F08
:105A8C003E3E1F3C1F7C0F780F780F780F780F78F5
:105A9C001F7C1F3C3E3EFC1FF00700000000000076
:105AAC0000000000000000000000000000000000EA
:105ABC00F83DFE3F3E3F1F3E0F3C0F3C0F3C0F3C62
:105ACC000F3C0F3C1F3C1E3E3E3FFC3FF83F003C52
